:020000040800F2
:1000000000200020214B0008714B0008714B0008B4
:1000100000000000000000000000000000000000E0
:10002000000000000000000000000000714B00080C
:100030000000000000000000714B0008710900087A
:10004000714B0008F10D0008714B0008714B00085E
:10005000714B0008350F0008890F0008DD0F0008FC
:10006000714B0008250E0008490E0008890E000893
:10007000714B0008910E0008B50E0008714B000886
:10008000D90E0008714B000800000000FD0E0008AA
:10009000714B0008030F0008090F0008714B00089E
:1000A000714B0008714B0008714B0008110F0008DC
:1000B000714B000800000000714B000800000000B8
:1000C00010B5064C2378002B07D1054B002B02D02E
:1000D000044800E000BF0123237010BD7000002021
:1000E00000000000E04E0008044B10B5002B03D0C8
:1000F0000349044800E000BF10BDC04600000000F6
:1001000074000020E04E0008002243088B4274D3A4
:1001100003098B425FD3030A8B4244D3030B8B4208
:1001200028D3030C8B420DD3FF22090212BA030C11
:100130008B4202D31212090265D0030B8B4219D3F2
:1001400000E0090AC30B8B4201D3CB03C01A524112
:10015000830B8B4201D38B03C01A5241430B8B425A
:1001600001D34B03C01A5241030B8B4201D30B0343
:10017000C01A5241C30A8B4201D3CB02C01A52416A
:10018000830A8B4201D38B02C01A5241430A8B422D
:1001900001D34B02C01A5241030A8B4201D30B0216
:1001A000C01A5241CDD2C3098B4201D3CB01C01A30
:1001B000524183098B4201D38B01C01A524143093A
:1001C0008B4201D34B01C01A524103098B4201D328
:1001D0000B01C01A5241C3088B4201D3CB00C01A95
:1001E000524183088B4201D38B00C01A524143080D
:1001F0008B4201D34B00C01A5241411A00D2014632
:10020000524110467047FFE701B5002000F006F8A4
:1002100002BDC0460029F7D076E770477047C04658
:1002200080B582B000AF0200FB1D1A70FB1D1B7869
:100230005BB21F221A40044B012191400A001A6050
:10024000C046BD4602B080BD00E100E080B582B08E
:1002500000AF78600A00FB1C1A70FB1C1B780F2291
:100260001340DAB27B680F210A4012015968F0206E
:1002700081430A435A607B681800BD4602B080BDC6
:1002800080B582B000AF78600A00FB1C1A70FB1CBE
:100290001B7807221340DAB27B6807210A4012025A
:1002A0005968044801400A435A607B681800BD46FB
:1002B00002B080BDFFF8FFFF80B582B000AF78606C
:1002C0000A00FB1C1A70FB1C1B7803221340DAB2D5
:1002D0007B6803210A405968032081430A435A601E
:1002E0007B681800BD4602B080BD000080B582B0BA
:1002F00000AF78600A00FB1C1A70FB1C1B780122FF
:100300001340DAB27B6801210A401204596804489C
:1003100001400A435A607B681800BD4602B080BDA8
:10032000FFFFFEFF80B582B000AF78600A00FB1CC3
:100330001A70FB1C1B780F221340DAB27B680F2166
:100340000A4092045968044801400A435A607B6895
:100350001800BD4602B080BDFFFFC3FF80B582B06C
:1003600000AF78607B681A68802149020A431A60EE
:100370007B681800BD4602B080BD80B582B000AF7A
:1003800078607B681B689B03DB0FDBB20122534064
:10039000DBB2002B00D0F4E77B681800BD4602B04A
:1003A00080BD80B582B000AF78607B681A6880211C
:1003B00049040A431A607B681800BD4602B080BD3C
:1003C00080B582B000AF78607B681B689B01DB0F53
:1003D000DBB201225340DBB2002B00D0F4E77B6894
:1003E0001800BD4602B080BD80B582B000AF786015
:1003F0007B681A6980210A431A617B681800BD4630
:1004000002B080BD80B582B000AF78607B681B69A8
:100410001B06DB0FDBB21800BD4602B080BD80B505
:1004200082B000AF78607B681A6902218A431A6142
:100430007B681A6901210A431A617B681800BD466E
:1004400002B080BD80B582B000AF78607B68DB68A9
:100450009B06DB0FDBB21800BD4602B080BD80B545
:1004600082B000AF78607B68DA6820210A43DA60E6
:100470007B681800BD4602B080BD80B582B000AF79
:1004800078607B68DB68DB07DB0FDBB21800BD46FA
:1004900002B080BD80B582B000AF0200FB1D1A70B3
:1004A000FB1D1B7880229202944663449B02180035
:1004B000BD4602B080BD000080B584B000AF78605A
:1004C0000A4BFB600A4BBB607B681800FFF79AFF82
:1004D000031E05D07B68054A5A607B68044A5A604F
:1004E0007B681800BD4604B080BDC0462301674547
:1004F000AB89EFCD80B582B000AF78600A00FB1CFD
:100500001A707B681A6901218A431A617B681A692B
:1005100002210A431A61FB1C1B781800FFF7BAFF7F
:1005200002007B685A617B681A6940210A431A619C
:100530007B681800BD4602B080BD80B582B000AFB8
:10054000386079603B681800BD4602B080BD80B558
:1005500082B000AF386079603A6813005B019B1A83
:100560009B009B18DB001800BD4602B080BD80B523
:1005700082B000AF7860396001223B689A40130076
:100580001A007B689A61C046BD4602B080BD80B546
:1005900082B000AF786039603B68103301229A4026
:1005A00013001A007B689A61C046BD4602B080BD48
:1005B00080B582B000AF786039607B681B6901212B
:1005C0003A6891400A0013405A1E9341DBB218006A
:1005D000BD4602B080BD80B582B000AF78603960A2
:1005E0003A687B6811001800FFF7E2FF031E06D08F
:1005F0003A687B6811001800FFF7C9FF05E03A6808
:100600007B6811001800FFF7B2FFC046BD4602B07C
:1006100080BD80B582B000AF786039603B6818005B
:10062000BD4602B080BD80B584B000AFF860B9604F
:100630007A60FB68BA681A60FB687A685A60FB687F
:100640001800BD4604B080BD80B582B000AF7860B0
:100650007B681A687B685B6819001000FFF787FFEA
:10066000C046BD4602B080BD80B582B000AF7860A4
:100670007B681A687B685B6819001000FFF787FFCA
:10068000C046BD4602B080BD80B582B000AF786084
:100690007B681A687B685B6819001000FFF788FFA9
:1006A00003001800BD4602B080BD80B582B000AF27
:1006B00078607B681A687B685B6819001000FFF738
:1006C0008AFFC046BD4602B080BD80B582B000AF93
:1006D00078600A00FB1C1A70FB1C1B78002B04D0EE
:1006E0007B681800FFF7B0FF03E07B681800FFF796
:1006F000BBFFFB1C1B781800BD4602B080BD90B547
:1007000085B000AF78600A00FB1C1A700F23FC183C
:100710007B681800FFF7B8FF03002370FB1C1B78F1
:10072000002B03D07B681800FFF7BFFF0F23FA18D8
:10073000FB1C12781B78D31A5A1E9341DBB21800A7
:10074000BD4605B090BD80B582B000AF786039601D
:100750007B683A685A60C046BD4602B080BD80B52D
:1007600082B000AF78607B6800229A60C046BD46C8
:1007700002B080BD80B582B000AF78600A00FB1C7B
:100780001A70FB1C1B7801221340DAB27B6801212E
:100790000A4092001968042081430A431A60C04647
:1007A000BD4602B080BD80B582B000AF78607B6886
:1007B0001A6802210A431A60C046BD4602B080BDD5
:1007C00080B582B000AF78600A00FB1C1A707B68AD
:1007D000FA1C127801210A401968012081430A435A
:1007E0001A60C046BD4602B080BD80B582B000AF81
:1007F000786039607B683A681100180001F030F8C1
:10080000C046BD4602B080BD90B587B000AF7860ED
:100810007B687B617B69180001F041F80300FB6095
:100820007B69180001F058F80300BB600823FA1830
:100830000C23FB181100180001F05EF8031E11D004
:100840000C243B19180001F076F803003B613B696A
:100850001B681B683A69100098473B19180001F0A3
:100860005CF8E3E7C046BD4607B090BD80B582B0F6
:1008700000AF78607B681800BD4602B080BD80B5CF
:1008800082B000AF78607B681800BD4602B080BDC2
:1008900080B582B000AF78607B6800229A607B6888
:1008A0001800BD4602B080BD80B582B000AF786050
:1008B0007B689B68002B05D07B689B6878687968AB
:1008C000032298477B681800BD4602B080BD80B502
:1008D00082B000AF78607B689B685A425341DBB2BC
:1008E0001800BD4602B080BD80B582B000AF786010
:1008F0007B681800BD4602B080BD80B582B000AFF5
:1009000078607B6800221A607B6800225A607B68EE
:100910001800BD4602B080BD80B582B000AF7860DF
:100920007B681800FFF7E9FF7B681800BD4602B03E
:1009300080BD80B582B000AF78607B681800FFF79B
:10094000EBFF7B6800229A607B680022DA607B689C
:1009500000221A617B6801225A6100F0F7FF030050
:10096000180000F0FBFF7B681800BD4602B080BD98
:1009700080B500AF034B180000F07AF8C046BD46C2
:1009800080BDC0468C00002080B582B000AF78608A
:100990007B6800221A607B6800225A607B6818001E
:1009A000BD4602B080BD000080B582B000AF786067
:1009B0007B6804331800FFF7E7FF044A7B681A607E
:1009C0007B681800BD4602B080BDC046904F00084D
:1009D00080B582B000AF78607B681800FFF7E4FF55
:1009E000054A7B681A607B6800221A737B681800CE
:1009F000BD4602B080BDC046844F000880B582B0BD
:100A000000AF786039607B681800FFF7E1FF0A4AA1
:100A10007B681A607B6800221A617B6800225A6139
:100A20003A687B681100180000F038F87B681800FD
:100A3000BD4602B080BDC046784F000880B582B088
:100A400000AF78607B685B695A1C7B685A61C0465E
:100A5000BD4602B080BD80B582B000AF78607B68D3
:100A60001B681800FFF7D0FEC046BD4602B080BD2F
:100A700080B582B000AF78607B6808331800FFF75C
:100A8000C3FE7B68103318007B685B697A681900C5
:100A900000F08EFFC046BD4602B080BD80B582B07A
:100AA00000AF786039607B683A681A617B6818002B
:100AB00000F01CF8C046BD4602B080BD80B582B0D3
:100AC00000AF78607B6859697B681A69002391429E
:100AD0005B41DBB2002B04D07B6800225A6101230A
:100AE00000E000231800BD4602B080BD80B582B092
:100AF00000AF78607B681B7B01225340DBB2002B88
:100B000008D07B6801221A737A68044B1100180020
:100B1000FFF76BFEC046BD4602B080BD8C000020D2
:100B200080B582B000AF78600A00FB1C1A707B6849
:100B300000221A607B68FA1C12781A717B68180010
:100B4000BD4602B080BD000080B582B000AF7860C5
:100B5000054B1B687A68127952B210009847C0465C
:100B6000BD4602B080BDC0460400002080B584B000
:100B700000AF786039607B681B68FB60FB68002B06
:100B80000BD0FB685B68002B03D0FB685B68FB60E5
:100B9000F7E7FB683A685A6002E07B683A681A60D7
:100BA000C046BD4604B080BD80B584B000AF78605B
:100BB0007B681B68FB60FB68002B09D0FB681B6827
:100BC0001B68FA6810009847FB685B68FB60F2E7F7
:100BD000C046BD4604B080BD80B582B000AF78602D
:100BE0007B682033012252421A607B681800BD46A0
:100BF00002B080BD80B582B000AF78607B6818001D
:100C0000BD4602B080BD90B583B000AF786039605A
:100C10003B68DBB2013B9B0001229A4013001C00A1
:100C20007B6804331800FFF7E5FF03001C60C04633
:100C3000BD4603B090BD80B582B000AF78607B68E0
:100C40001A8A01218A431A82C046BD4602B080BD7D
:100C500080B582B000AF78607B681F221340180017
:100C6000BD4602B080BD80B582B000AF78607B68C1
:100C70001800FFF7EDFF0200012393401800BD4666
:100C800002B080BD80B582B000AF786039607B680B
:100C90001800BD4602B080BD80B582B000AF78605C
:100CA0007B681B681800BD4602B080BD80B582B06D
:100CB00000AF78607B681800BD4602B080BD80B58B
:100CC00082B000AF786039607B681800FFF7EEFFF4
:100CD00003001A6801203968884001000A431A603D
:100CE0007B681800BD4602B080BD80B582B000AF01
:100CF00078607B681800BD4602B080BD80B582B0C8
:100D000000AF786039607B6814331800FFF7EDFF9F
:100D100003001B6801213A6891400A0013405A1EE3
:100D20009341DBB21800BD4602B080BD90B587B0DC
:100D300000AFF86008007A6019000B243B19021C10
:100D40001A700A23FB180A1C1A7001227B689A4049
:100D500013007B613B191B78002B04D00B23FB187D
:100D60001B78022B1AD10A23FB181B78002B0AD000
:100D7000FB6808331800FFF7B8FF030019687A69A9
:100D80000A431A600AE0FB6808331800FFF7ADFF5A
:100D900003001A687969C9430A401A600B23FB18DB
:100DA0001B78012B04D00B23FB181B78022B1AD1C4
:100DB0000A23FB181B78002B0AD0FB680C331800A1
:100DC000FFF793FF030019687A690A431A600AE083
:100DD000FB680C331800FFF788FF03001A68796975
:100DE000C9430A401A60FB681800BD4607B090BDB1
:100DF00080B500AF00F002FE030010211800FFF7DD
:100E00007DFF031E03D0064B1800FFF7CDFE00F058
:100E1000F5FD0300180000F0F9FDC046BD4680BD99
:100E2000A400002080B500AF064B1800FFF7BCFE01
:100E300000F014FE030001211800FFF7E4FEC04695
:100E4000BD4680BDCC00002080B500AF0C4B180023
:100E5000FFF7AAFE00F002FE030002211800FFF7D0
:100E6000D2FE084B1800FFF79FFE00F0F7FD0300CD
:100E700003211800FFF7C7FEC046BD4680BDC0462F
:100E8000D4000020DC00002080B500AFFEE70000A9
:100E900080B500AF064B1800FFF786FE00F0ECFDB2
:100EA00003001800FFF7C7FEC046BD4680BDC04620
:100EB000BC00002080B500AF064B1800FFF774FEA1
:100EC00000F0DAFD03001800FFF7B5FEC046BD468E
:100ED00080BDC046BC00002080B500AF064B1800A6
:100EE000FFF762FE00F0D0FD03001800FFF7A3FE3D
:100EF000C046BD4680BDC046C400002080B500AFDE
:100F0000FEE780B500AFFEE780B500AFFEE700006A
:100F100080B500AF064B1800FFF746FE00F0BCFDA1
:100F200003001800FFF758FEC046BD4680BDC0460E
:100F3000B400002080B500AF00F060FD0300002188
:100F40001800FFF7DBFE031E03D00D4B1800FFF760
:100F50002BFE00F053FD030001211800FFF7CEFE29
:100F6000031E03D0074B1800FFF71EFE00F046FDDE
:100F70000300180000F098FDC046BD4680BDC04685
:100F8000F4000020FC00002080B500AF00F036FD2A
:100F9000030002211800FFF7B1FE031E03D00D4B22
:100FA0001800FFF701FE00F029FD030003211800DF
:100FB000FFF7A4FE031E03D0074B1800FFF7F4FD54
:100FC00000F01CFD0300180000F0B1FDC046BD4656
:100FD00080BDC046040100200C01002080B500AF98
:100FE00000F00CFD030004211800FFF787FE031E2C
:100FF00003D04E4B1800FFF7D7FD00F0FFFC0300B5
:1010000005211800FFF77AFE031E03D0484B180095
:10101000FFF7CAFD00F0F2FC030006211800FFF7FD
:101020006DFE031E03D0434B1800FFF7BDFD00F01B
:10103000E5FC030007211800FFF760FE031E03D044
:101040003D4B1800FFF7B0FD00F0D8FC030008216D
:101050001800FFF753FE031E03D0384B1800FFF7AC
:10106000A3FD00F0CBFC030009211800FFF746FEAA
:10107000031E03D0324B1800FFF796FD00F0BEFCB4
:1010800003000A211800FFF739FE031E03D02D4B81
:101090001800FFF789FD00F0B1FC03000B211800D8
:1010A000FFF72CFE031E03D0274B1800FFF77CFD33
:1010B00000F0A4FC03000C211800FFF71FFE031E24
:1010C00003D0224B1800FFF76FFD00F097FC0300E0
:1010D0000D211800FFF712FE031E03D01C4B180051
:1010E000FFF762FD00F08AFC03000E211800FFF7F5
:1010F00005FE031E03D0174B1800FFF755FD00F047
:101100007DFC03000F211800FFF7F8FD031E03D03C
:10111000114B1800FFF748FD00F070FC03001800A9
:1011200000F048FDC046BD4680BDC0461401002009
:101130001C010020240100202C010020340100208B
:101140003C010020440100204C01002054010020FB
:101150005C010020640100206C01002080B582B099
:1011600000AF78607B685B781B021AB27B681B78E3
:101170001BB213431BB29BB21800BD4602B080BD28
:1011800080B584B000AFF860B9607A60FB68BA6877
:101190001A60FB687A685A60FB681800BD4604B0A4
:1011A00080BD80B582B000AF786039607B683A68F6
:1011B0001A607B681800BD4602B080BD80B582B061
:1011C00000AF78607B681B681800BD4602B080BD28
:1011D00080B582B000AF78607B681B681800BD46A0
:1011E00002B080BD80B582B000AF78607B681B68BC
:1011F0001800BD4602B080BD80B582B000AF7860F7
:1012000039607B681A683B681B68D31A5A1E934181
:10121000DBB21800BD4602B080BD80B582B000AF21
:1012200078607B681B689A1C7B681A607B68180072
:10123000BD4602B080BD80B584B000AF78607B68E9
:101240001A680C23FB1811001800FFF7AAFFFB68AF
:101250001800BD4604B080BD80B584B000AF786092
:101260007B681A687B685B685B00D2180C23FB18EC
:1012700011001800FFF795FFFB681800BD4604B089
:1012800080BD80B582B000AF78607B681A7810218D
:101290000A431A707B681800BD4602B080BD80B555
:1012A00082B000AF78600A00FB1C1A70FB1C1B7830
:1012B00007221340DAB27B6850011A781F210A40D6
:1012C000111C021C0A431A707B681800BD4602B04C
:1012D00080BD80B582B000AF78607B681800FFF7F2
:1012E000E3FA7B681800BD4602B080BD80B584B0CB
:1012F00000AFF860B9607A603B60FB68BA681A605A
:10130000FB687A685A60FB683A689A60FB680C333D
:10131000180000F092FCFB681C33FA6811001800FA
:1013200000F02CF8FB681800BD4604B080BD80B505
:1013300082B000AF78607B680C33180000F08AFC44
:10134000031E04D07B680C33180000F094FCC046E8
:10135000BD4602B080BD000080B582B000AF7860AD
:10136000054A7B681A607B6800225A607B68180017
:10137000BD4602B080BDC0466C4F000880B582B04B
:1013800000AF786039607B681800FFF7E5FF094A15
:101390007B681A607B683A689A603B689B687A68E9
:1013A00011001800FFF7E2FB7B681800BD4602B091
:1013B00080BDC046444F000880B582B000AF786061
:1013C0007B689B681800FFF7B2FFC046BD4602B0BD
:1013D00080BD000080B500AF014B1800BD4680BD48
:1013E000A400002080B582B000AF786039607B68CF
:1013F0000C333A681100180000F052FCC046BD469C
:1014000002B080BD80B500AF00F065FCC046BD46AF
:1014100080BD80B582B000AF786039603A687B6883
:101420001100180000F087FC7868BD4602B080BD4E
:1014300080B500AF0F4B1B68012213400AD100F0AA
:1014400095FC01000C4B0C221800FFF7ECF8094B3F
:1014500001221A6000F0CAFA0300180000F08EFCA6
:10146000054B1B68180000F097FC034B1800BD46A5
:1014700080BDC0467C0100207401002080B500AF13
:101480000F4B1B68012213400AD100F06FFC0100D2
:101490000C4B0D221800FFF7C6F8094B01221A6009
:1014A00000F0A4FA0300180000F068FC054B1B686C
:1014B000180000F083FC034B1800BD4680BDC046F9
:1014C000880100208001002080B500AF0F4B1B6811
:1014D000012213400AD100F083FC01000C4B0D22C5
:1014E0001800FFF7A0F8094B01221A6000F07EFAFD
:1014F0000300180000F07CFC054B1B68180000F08E
:1015000085FC034B1800BD4680BDC04694010020F9
:101510008C01002080B582B000AF78607B680C330E
:101520001800FFF7D6FE7B681800BD4602B080BDEC
:10153000B0B582B000AF224B1B680122134016D118
:1015400000F098FC040000F059FA0500FFF742FF94
:1015500003001C482A002100FFF7C8FE184B012297
:101560001A60194A1949174B180003F029FB154B4B
:101570005B6810211800FFF7A2FB124B586801238B
:1015800010220021FFF7D2FB0E4B9B681800FFF7DB
:10159000DBFA00F02BFA03007B607B68180000F098
:1015A00071FC084B1B6807211800FFF778FE030049
:1015B0001800FFF766FE034B1800BD4602B0B0BD31
:1015C000C00100209801002000000020151500082F
:1015D00090B583B000AF78607B685A687B681C6800
:1015E000100000F05DFC03006380C046BD4603B000
:1015F00090BD80B582B000AF78607B681800FFF7BF
:1016000053F97B681800BD4602B080BD90B583B029
:1016100000AF78607B681B68180000F003FD7B68F2
:101620005C6803200021FEF792FF030019002000F0
:10163000FFF734FA7B689B6801211800FFF745F833
:101640007B68DB6801221A70C046BD4603B090BDBE
:10165000F0B5DBB002AF7E4BAE225200BA18136079
:10166000FA235B01AC225200BA1813608E256D007C
:101670007B1900221A807B1900225A80D823FB187C
:101680007A1911001800FFF7C4FEFFF7D1FE03001E
:10169000D422BA181360FFF7F1FE0300D022BA1863
:1016A0001360FFF711FF0300CC22B9180B607A1901
:1016B000B026BB191100180000F0BAFBFFF738FF85
:1016C0000300AC21781803607B181C68982149003E
:1016D0007B187A191A607B1835007A195A607B18C2
:1016E00090267600B81919685A6800F0EDFBBB190E
:1016F00019002000FFF776FEBB191800FFF7E9FD7F
:10170000544A94243B191A603B1900225A603B1931
:1017100000229A603B1900221A733B1900221A61B9
:101720003B1900225A619326BB1900221A701C2310
:10173000FB18180000F026FCA42149007B187A1938
:101740001A607B183A195A60CC22BA1812687B18B2
:101750009A607B18BA19DA607B189C2464003819E7
:101760006A46D968116019685A689B6800F076FC6F
:101770003A191C23FB181100180000F0A5FC3B19B6
:101780001800FFF7A6FD01200021FEF7E0FE020091
:101790003B1D11001800FFF731F93B1D1800FFF742
:1017A0008DF9030019009323FB181B780122534085
:1017B000DBB20B405A1E9341DAB2CC23FB181B68F4
:1017C00011001800FEF79BFF8E235B00FB181B889F
:1017D000214A934215D98E235B00FB181B881F4AB0
:1017E00093420ED8D023FB181B6801211800FEF786
:1017F0006CFFD423FB181B6800211800FEF765FF5F
:1018000023E08E235B00FB181B88144A93420ED9F9
:10181000D023FB181B6800211800FEF756FFD423C5
:10182000FB181B6801211800FEF74FFF0DE0D023C5
:10183000FB181B6800211800FEF747FFD423FB1894
:101840001B6800211800FEF740FF30BFA5E7C04627
:101850004C1D0000784F00084B1D00003F1F00008A
:1018600080B582B000AF786039607B685A683B68A9
:101870005A607B685B68002B03D07B685B683A68C2
:101880009A607B683A685A607B681B68002B02D1BB
:101890007B683A681A60C046BD4602B080BD80B51C
:1018A00084B000AF78607B681A680C23FB181100C5
:1018B000180000F019FCFB681800BD4604B080BD9C
:1018C00080B582B000AF78607B6800221A607B68C8
:1018D0001800BD4602B080BD80B584B000AF78600E
:1018E0000023FB600C23FB181800FFF7E9FFFB68DF
:1018F0001800BD4604B080BD80B582B000AF7860EE
:1019000039607B681A683B681B68D31A5A1E93417A
:10191000DBB21800BD4602B080BD80B582B000AF1A
:1019200078607B681B689A687B681A607B6818001F
:10193000BD4602B080BD80B582B000AF78607B68E4
:101940001B681800BD4602B080BD000080B500AF26
:10195000014B1800BD4680BD10E000E080B584B0AA
:1019600000AF7860114BFB607B6800211800FEF728
:1019700027FF0E4A7B6811001800FEF7E4FE7B6823
:101980001800FEF7ECFE7B6801211800FEF7F2FE5E
:101990007B681800FEF707FF7B6801211800FEF73F
:1019A0000FFFC046BD4604B080BDC0467FBB0000EF
:1019B00080B584B000AFF860B9607A60FB681A68DF
:1019C000511CFB681960B9681000FEF723FC0B007E
:1019D0005A425341DBB2002B03D03B1D1800FFF7E6
:1019E0003AF8C046BD4604B080BD000080B500AFE7
:1019F000014B1800BD4680BD0010024080B500AF0D
:101A0000014B1800BD4680BD00040140B0B588B050
:101A100000AF78600023FB6010243B190C25791976
:101A20001022180000F06DFB3B190121180000F096
:101A300081FB3B19180000F074FB7B19180000F0C3
:101A4000A5FB04007B6814331800FFF74EF9030070
:101A50001C607B681800BD4608B0B0BD80B500AF03
:101A6000044B19000820FEF7D4FD03001800BD4602
:101A700080BDC0460000024080B500AF014B180099
:101A8000BD4680BD002C014080B500AF014B180061
:101A9000BD4680BD0004004080B500AF014B18007A
:101AA000BD4680BD0038014090B589B000AF786078
:101AB0000023BB600C243B190822B918002218002F
:101AC00000F01FFB3B190121180000F033FB3B190C
:101AD000180000F026FB0123FB61FB69012B14DCDD
:101AE000FA6914243B1908217918180000F009FB41
:101AF0003B190121180000F01DFB3B19180000F0F4
:101B000010FBFB690133FB61E7E70823FB181800B2
:101B100000F03CFB04007B6814331800FFF7E5F885
:101B200003001C607B681800BD4609B090BD90B5ED
:101B300089B000AF78600023BB600C243B190822F9
:101B4000B9180222180000F0DCFA3B190121180034
:101B500000F0F0FA3B19180000F0E3FA0323FB61F0
:101B6000FB69032B14DCFA6914243B19082179184A
:101B7000180000F0C6FA3B190121180000F0DAFA4B
:101B80003B19180000F0CDFAFB690133FB61E7E770
:101B90000823FB18180000F0F9FA04007B681433DE
:101BA0001800FFF7A2F803001C607B681800BD4610
:101BB00009B090BD90B589B000AF78600023BB60DC
:101BC0000C243B190822B9180422180000F099FAD5
:101BD0003B190121180000F0ADFA3B19180000F084
:101BE000A0FA0523FB61FB690F2B14DCFA691424AE
:101BF0003B1908217918180000F083FA3B190121DC
:101C0000180000F097FA3B19180000F08AFAFB69F7
:101C10000133FB61E7E70823FB18180000F0B6FA70
:101C200004007B6814331800FFF75FF803001C60A2
:101C30007B681800BD4609B090BD80B582B000AF8A
:101C400078607B681800FEF723FE7B681800BD46AD
:101C500002B080BD80B582B000AF78607B681800AC
:101C6000FEF735FE03001A0001235340DBB21800D3
:101C7000BD4602B080BD80B582B000AF78607B68A1
:101C80001800FEF724FE031E01D002F0A4FF7B68BB
:101C9000DB687A6810009847C046BD4602B080BD38
:101CA00090B587B000AF786039603A6808243B1976
:101CB0001100180000F077FA7A683B19110018003B
:101CC00000F093FA3B191800FFF703FB7B6818003C
:101CD000BD4607B090BD80B500AFFFF787FE03009B
:101CE0001800FEF73BFB03001800FEF746FB03005D
:101CF00000211800FEF7AAFA030000211800FEF7E1
:101D0000BFFA030002211800FEF7D6FA03000421EF
:101D10001800FEF707FB030001211800FEF7E6FAA2
:101D200003001800FEF73DFB03001800FEF748FB18
:101D3000C046BD4680BD80B582B000AF78603960D6
:101D40007B68180000F0AAFA7B683A685A613A6822
:101D50007B681100180000F00BFB7B681800FEF791
:101D6000C5FE7B681800BD4602B080BD80B500AFDF
:101D7000014B1800BD4680BD0004004880B582B00C
:101D800000AF78607B685A698021C9020A435A61B2
:101D9000C046BD4602B080BD80B582B000AF78605D
:101DA0007B680121180000F001FB7B68002118000E
:101DB00000F018FBC046BD4602B080BD80B582B0C1
:101DC00000AF78607B680121180000F027FB7B687A
:101DD0000021180000F03EFBC046BD4602B080BDA9
:101DE00080B500AF014B1800BD4680BD000800481B
:101DF00080B582B000AF78607B685A6980210903A2
:101E00000A435A61C046BD4602B080BD80B582B06B
:101E100000AF78607B680121180000F0FFFA7B6852
:101E20000021180000F016FBC046BD4602B080BD80
:101E300080B582B000AF786039607B681800FEF72B
:101E4000C7FD0B4A7B681A607B683A681A617B6839
:101E500000225A617B681800FEF748FE3B685A88EA
:101E60007B681A837B681800BD4602B080BDC046FF
:101E70002C4F000880B500AF014B1800BD4680BD57
:101E80000070004080B582B000AF78607B68DA698E
:101E9000802109050A43DA61C046BD4602B080BD13
:101EA00080B582B000AF78607B681B8B1800BD46A0
:101EB00002B080BD80B582B000AF78607B6818004A
:101EC000BD4602B080BD000090B585B000AFF8609F
:101ED0003B1D19605A60FB681800FEF7D9FC3B1DDA
:101EE000180000F0D3FA031E0FD0FC683B1D180049
:101EF000FFF7E0FF03001900200000F0D0FAFB68B4
:101F0000044ADA60FB68044A9A60FB681800BD4620
:101F100005B090BDC5240008E524000880B582B056
:101F200000AF7860034A7B681A607B681800BD4682
:101F300002B080BD504F000880B500AF0F4B1B684A
:101F4000012213400AD1FFF74BFF01000C4B0E2278
:101F50001800FEF768FB094B01221A60FFF746FDE7
:101F600003001800FFF744FF054B1B68180000F042
:101F7000F3FA034B1800BD4680BDC046CC010020DB
:101F8000C401002080B582B000AF78607B68180083
:101F9000FFF7C4FF7B6804331800FEF719FD1F4AE2
:101FA0007B681A601E4A7B685A607B6800225A74FC
:101FB0007B6814331800FFF740FE7B682433180059
:101FC000FFF73BFE7B6834331800FFF736FE7B6873
:101FD00044331800FFF731FE7B685433180000F0DB
:101FE000AEFAFFF7A9FF02007B685A667B68002201
:101FF0009A667B680122DA667B6870220021995418
:102000007B687122002199547B6804331800FEF725
:102010006DFD7B681800BD4602B080BD004F000812
:10202000204F000880B582B000AF78607B68002246
:102030001A837B681B6900225A807B681B69002217
:102040001A80C046BD4602B080BD80B582B000AFE8
:1020500078607B681800BD4602B080BD84B090B542
:1020600083B000AF786004201824A446BC446044C8
:102070000160426083607B681800FEF709FC1C2346
:10208000FB18180000F07AFA031E10D07C681C239D
:10209000FB181800FFF7D9FF03001900200000F01B
:1020A00076FA7B68064ADA607B68064A9A607B6843
:1020B0001800BD4603B090BC08BC04B01847C04629
:1020C000B5250008D525000880B582B000AF78603E
:1020D00039607B6844333A6811001800FFF7E0FD6F
:1020E000C046BD4602B080BD80B582B000AF78600A
:1020F00039607B683A681A607B681800BD4602B098
:1021000080BD80B584B000AFF860B9607A607A684D
:10211000B968FB68180000F08AFAF868BD4604B098
:1021200080BD80B582B000AF78607B681800BD4686
:1021300002B080BD80B582B000AF78600A00FB1CA1
:102140001A70FB1C1B78002B0DD07B685B68180095
:10215000FEF789FD01007B681B681A687B681B68B5
:102160000A431A600DE07B685B681800FEF77BFD90
:102170000300DA437B681B6819687B681B680A40A8
:102180001A607B681800BD4602B080BD80B582B081
:1021900000AF78607B681800FEF77EFD0300180032
:1021A000BD4602B080BD80B582B000AF78603960B6
:1021B0007B681800FEF76CFB3B681800FFF74AFDD0
:1021C000031E0DD03B689B687868396802229847E7
:1021D0003B68DA687B68DA603B689A687B689A607B
:1021E0007B681800BD4602B080BD80B582B000AFEC
:1021F000786039607B683A681100180000F03BFA9B
:102200007B6808331A003B6808331900100000F09F
:102210005DFA7B680C331A003B680C331900100020
:1022200000F07EFAC046BD4602B080BD80B500AF6A
:102230008023DB001800BD4680BD000080B500AFE4
:10224000014B1800BD4680BD0068000880B500AF96
:102250008023DB001800BD4680BD000080B500AFC4
:10226000014B1800BD4680BD0064000880B582B0F7
:1022700000AF78607B6800221A607B681800BD465A
:1022800002B080BD80B582B000AF78607B6800226C
:102290001A707B681800BD4602B080BDB0B582B030
:1022A00000AF78607B681800FEF792FB2F4A7B68CE
:1022B0001A6000F067FA02007B681A617B680022EE
:1022C0005A617B680022DA617B681C331800FFF7D3
:1022D000CDFF7B6800221A847B6800225A627B68EB
:1022E00028331C00FFF7AAFF03001D00FFF79EFF25
:1022F00003005B081A0029002000FEF741FF7B68FD
:1023000030331C00FFF7AAFF03001D00FFF79EFFFC
:1023100003005B081A0029002000FEF731FF7B68EC
:1023200028330021180000F01CFA03007C68180014
:10233000FEF781FF0300A3637B683C2200219954D0
:102340007B683D22002199547B683E2200219954EC
:102350007B684022002199547B6840331800FFF7C6
:1023600091FF7B681800BD4602B0B0BD384F000831
:1023700080B582B000AF786039607B683A685A6196
:102380007B68180000F033FA03001A000123534061
:10239000DBB2002B05D03B6800221A803B6800228C
:1023A0005A80C046BD4602B080BD000080B582B0F4
:1023B00000AF78600A00FB1C1A70FB1C1B7803221C
:1023C0001340DAB27B6803210A40120619680448F8
:1023D00001400A431A607B681800BD4602B080BD08
:1023E000FFFFFFFC80B582B000AF78600A00FB1CE5
:1023F0001A70FB1C1B7803221340DAB27B6803219E
:102400000A401206D968044801400A43DA607B6832
:102410001800BD4602B080BDFFFFFFFC80B582B052
:1024200000AF78600A00FB1C1A70FB1C1B780322AB
:102430001340DAB27B6803210A4092061968044807
:1024400001400A431A607B681800BD4602B080BD97
:10245000FFFFFFF380B582B000AF78600A00FB1C7D
:102460001A70FB1C1B7803221340DAB27B6803212D
:102470000A409206D968044801400A43DA607B6842
:102480001800BD4602B080BDFFFFFFF380B582B0EB
:1024900000AF786001231800BD4602B080BD90B542
:1024A00085B000AF786039603B681800FFF702FD27
:1024B00001007B68221C180000F038FBC046BD46B6
:1024C00005B090BD80B582B000AF78607B68180021
:1024D00000F049FB03001800FFF77AF8C046BD463C
:1024E00002B080BDB0B586B000AFF860B960FB1D2A
:1024F0001A70FB1D1B78022B0FD0032B14D0012B5D
:1025000018D1BB68180000F02EFB0400FB6818000F
:1025100000F03CFB03001C600CE0B968FB682A1C5F
:10252000180000F040FB05E0FB68211C180000F0DB
:1025300057FBC04600231800BD4606B0B0BD80B5AD
:1025400082B000AF78607B681800FEF7A1F97B6865
:102550001800BD4602B080BD80B582B000AF786083
:102560007B680021180000F049FB7B6800211800FF
:1025700000F060FBC046BD4602B080BD80B582B0B1
:1025800000AF786001231800BD4602B080BD90B551
:1025900085B000AF786039603B681800FFF755FDE3
:1025A00001007B68221C180000F060FBC046BD469D
:1025B00005B090BD80B582B000AF78607B68180030
:1025C00000F075FB03001800FFF720F8C046BD4679
:1025D00002B080BDB0B586B000AFF860B960FB1D39
:1025E0001A70FB1D1B78022B0FD0032B14D0012B6C
:1025F00018D1BB68180000F05AFB0400FB681800F3
:1026000000F065FB03001C600CE0B968FB682A1C45
:10261000180000F069FB05E0FB68211C180000F0C1
:1026200085FBC04600231800BD4606B0B0BD80B58E
:1026300084B000AFF860B9607A60BB687A68110056
:102640001800FEF71FFB0200FB681A607B68180089
:10265000FEF7FEFA0200FB685A60FB681800BD46F0
:1026600004B080BD80B582B000AF78607B68180090
:10267000BD4602B080BD90B585B000AF78603960CE
:102680007B681800FFF7EEFF020008243B1903CA1D
:1026900003C33B681800FFF7E5FF02007B6803CA2D
:1026A00003C33B191800FFF7DDFF02003B6803CAB4
:1026B00003C3C046BD4605B090BD80B582B000AF33
:1026C00078607B681800BD4602B080BD80B584B0DC
:1026D00000AF786039607B681800FFF7EEFF0300F9
:1026E0001B68FB603B681800FFF7E7FF03001A68F0
:1026F0007B681A600C23FB181800FFF7DEFF03004D
:102700001A683B681A60C046BD4604B080BD80B5FB
:1027100082B000AF78607B681800BD4602B080BD13
:1027200080B584B000AF786039607B681800FFF72F
:10273000EEFF03001B68FB603B681800FFF7E7FF34
:1027400003001A687B681A600C23FB181800FFF757
:10275000DEFF03001A683B681A60C046BD4604B03D
:1027600080BD80B582B000AF786039607B683A6820
:102770001100180000F0EEFA03001800BD4602B088
:1027800080BD000080B500AF014B1800BD4680BD84
:102790000020024080B582B000AF78607B681800EE
:1027A000BD4602B080BD80B582B000AF78607B6866
:1027B00004331800BD4602B080BDB0B582B000AF92
:1027C00078607B681B681800FFF7E4FF04007B68F3
:1027D0001B681800FFF7E7FF03002A1C1900200000
:1027E00000F0F1FA03001800BD4602B0B0BDF0B52C
:1027F0008FB000AF78607B681833180000F0B7FA2C
:1028000004007B681833180000F0BAFA0100FF23B7
:102810007B611423FB181A00200000F0BBFA102182
:102820007B1800221A607B18FB607B681B6918000C
:10283000FDF742FE00237B637B682833180000F01D
:10284000D9FA02007B6B93429B415B42DBB2002BC7
:1028500000D181E07B6828337A6B11001800FFF704
:1028600080FF03001800FEF7E6FC05007B682833B4
:102870007A6B11001800FFF774FF03001800FEF7D1
:10288000EBFC010018203B187A681A603B181022F4
:10289000BA185A607C683B181A685B68280000F018
:1028A000B2FA0300A3637B6838331800FEF786FC96
:1028B00004007B6828337A6B11001800FFF751FF82
:1028C00003001800FEF7B7FC03003B622023FB184F
:1028D0001800FEF773FC0300E31A5A425341DBB2BF
:1028E000002B07D07B681C337A6B1100180000F0B6
:1028F000A5FA2DE07B6838331C007B6828337A6B9F
:1029000011001800FFF72DFF03001800FEF7A4FCCC
:1029100003007B622423FB1819002000FEF76CFCE7
:10292000031E0ED07B681C337A6B1100180000F078
:1029300085FA0C23FB181800FFF73FFF031E07D092
:102940000AE07A6820217B6BD3185B1801221A7089
:102950007B6B01337B636FE77B6838331800FEF7CE
:102960002DFC04007B6828331D007B681C33180095
:1029700000F072FA030019002800FFF7F2FE0300CE
:102980001800FEF769FC0300BB622823FB1818003F
:10299000FEF714FC0300E31A5A425341DBB2002B4A
:1029A00025D07B6820331C007B681C33180000F0A6
:1029B00053FA0300E31801221A707B681C330021CC
:1029C000180000F03BFA7B6828331C007B681C333E
:1029D000180000F041FA030019002000FFF7C1FEC3
:1029E00003007C681800FEF726FC0300A3632F2574
:1029F0007C190C23FB181800FFF7DFFE030023707F
:102A00007B191B78002B0CD07B6858697B681833C6
:102A10000422190002F034F97B683E220021995407
:102A20000FE07B6820331C007B681C33180000F02B
:102A300013FA0300E31801221A707B683E22052175
:102A4000995400233B637B682833180000F0D2F9C7
:102A500002003B6B93429B415B42DBB2002B42D0B6
:102A60007A6820213B6BD3185B181B7801225340F6
:102A7000DBB2002B0AD07B681C33180000F0ECF9A5
:102A800002003B6B934201D0012300E00023002BA6
:102A900025D07B6828333A6B11001800FFF761FEE0
:102AA00003001800FEF7C7FB04007B6828333A6B6D
:102AB00011001800FFF755FE03001800FEF7CCFBCD
:102AC0000300FA781900200000F0D0F90300180084
:102AD0007A6820213B6BD3185B18021C1A703B6B81
:102AE00001333B63AFE77B682033180000F0D4F973
:102AF00004007B682033180000F0D7F90300321C73
:102B00001900200000F0DBF9031E03D07B683D2292
:102B1000032199547B681B691800FDF765FC2F237E
:102B2000FB181B781800BD460FB0F0BD90B585B0FE
:102B300000AFF860B9603B1D1A70BB681800FFF762
:102B4000B9F90400FB681800FDF790FE03001900B6
:102B50000820FDF75EFD0300220003CA03C3C04640
:102B6000BD4605B090BD80B584B000AF78607B688D
:102B7000180000F0BAF90300180000F0C3F90300D0
:102B8000FB60FB681800BD4604B080BD80B582B014
:102B900000AF78607B681800FDF768FE030018003E
:102BA000BD4602B080BD90B585B000AFF860B96099
:102BB0003B1D1A70BB68180000F097F90400FB6811
:102BC0001800FDF753FE030019000820FDF721FD52
:102BD0000300220003CA03C3C046BD4605B090BD32
:102BE00080B582B000AF78603B0019707B68180038
:102BF00000F091F9C046BD4602B080BD80B582B0FC
:102C000000AF78600A00FB1C1A70FB1C1B780322C3
:102C10001340DAB27B6803210A401207196804489E
:102C200001400A431A607B681800BD4602B080BDAF
:102C3000FFFFFFCF80B582B000AF78600A00FB1CB9
:102C40001A70FB1C1B7803221340DAB27B68032145
:102C50000A401207D968044801400A43DA607B68D9
:102C60001800BD4602B080BDFFFFFFCFB0B584B0F5
:102C700000AFF860B9603B1D1A70BB681800FFF721
:102C8000E4F90500102001F074FF03001C0023008C
:102C90002A0023CA23C312681A60FB68180000F0D8
:102CA00016F803001C60C046BD4604B0B0BD80B538
:102CB00084B000AF78607B68180000F039F9030039
:102CC0001B68FB60FB681800BD4604B080BD80B582
:102CD00082B000AF78607B681800FDF7C7FD030085
:102CE0001800BD4602B080BDB0B584B000AFF8603A
:102CF000B9603B1D1A70BB68180000F019F9030099
:102D00001D68102001F035FF03001C0023002A007D
:102D100023CA23C312681A60FB681800FFF7D7FFA5
:102D200003001C60C046BD4604B0B0BD80B582B093
:102D300000AF78603B0019707B681800FFF7C7FF91
:102D400003001B681021180001F041FFC046BD467A
:102D500002B080BD80B582B000AF786039603B685A
:102D6000DB007A68D3181800BD4602B080BD80B57C
:102D700082B000AF78607B681800BD4602B080BDAD
:102D800080B582B000AF78607B6804331800BD4620
:102D900002B080BD90B585B000AFF860B9607A60D0
:102DA000FB68180000F0D1F80400BB68180000F0C0
:102DB000CCF801007B681A00200000F0CFF8C04674
:102DC000BD4605B090BD90B585B000AFF860B96064
:102DD0003B1D1A70B968FB68221C180000F0D7F878
:102DE0000200BB689B1A5A425341DBB21800BD4631
:102DF00005B090BD80B582B000AF786002231800A6
:102E0000BD4602B080BD90B587B000AFF860B96034
:102E100039000A604B60102438193B0019685A6861
:102E200000F0D3F83B19B968F8681A685B6800F0DD
:102E3000E9F803001800BD4607B090BD80B582B028
:102E400000AF786039607B683A681A607B681B68FD
:102E50001800BD4602B080BD80B582B000AF78607A
:102E60007B681B681800BD4602B080BD90B585B078
:102E700000AFF860B9603B1D1A70B968FB68221C8E
:102E8000180000F0DAF803001A0001235340DBB207
:102E90001800BD4605B090BD80B582B000AF786027
:102EA0007B681800BD4602B080BD80B582B000AF1F
:102EB00078607B6802331800BD4602B080BD90B5D3
:102EC00085B000AFF860B9603B1D1A70B968FB6847
:102ED000221C180000F0D4F803001A00012353400C
:102EE000DBB21800BD4605B090BD80B582B000AF22
:102EF00078607B681800FDF7C2FC03001800BD462F
:102F000002B080BD80B582B000AF78607B681800E9
:102F1000BD4602B080BD80B582B000AF78607B68EE
:102F20001800FDF7A3FC03001800BD4602B080BDE9
:102F300080B582B000AF78607B681800FDF79FFC19
:102F400003001800BD4602B080BD80B582B000AF5E
:102F500078607B681800BD4602B080BD80B586B041
:102F600000AFF860B9607A607B681B687B61FA68C3
:102F7000BB689A4207D07B69DAB2FB681A70FB68BB
:102F80000133FB60F3E7C046BD4606B080BDB0B577
:102F900084B000AFF860B9603B1D1A70281C00F0C7
:102FA0008FF8B968FB68221C180000F0A4F8030031
:102FB0001800BD4604B0B0BD80B582B000AF7860E7
:102FC0007B681800BD4602B080BD80B584B000AFFC
:102FD000F8603B1D19605A603B1D1800FFF7ECFFBD
:102FE0000300F86819685A6800F0A2F8F868BD464E
:102FF00004B080BD80B582B000AF7860181CBD46BB
:1030000002B080BD90B587B002AFF860B9603900FA
:103010000A604B600C23FB181800FFF7EBFF3B0026
:10302000B968F8686A4614701A685B6800F094F82A
:1030300003001800BD4605B090BDB0B586B000AF26
:10304000F860B9603B1D1A700823FB181800FEF7E2
:10305000B5F80400B968FB682A1C180000F0ABF84A
:1030600003007B611423FB181800FEF7A7F8030088
:10307000E31A5A425341DBB21800BD4606B0B0BD58
:1030800090B585B000AFF860B9603B1D1A70B968A3
:10309000FB68221C180000F0A3F80200BB689B1A12
:1030A0005A425341DBB21800BD4605B090BD80B511
:1030B00082B000AF78607B681800BD4602B080BD6A
:1030C000B0B584B000AF3B1D18703B1D1800FFF772
:1030D000EEFF0C23FB18291C180000F096F8201CAA
:1030E000BD4604B0B0BD80B582B000AF7860181C9A
:1030F000BD4602B080BDF0B585B000AFF860B960E4
:103100003B1D1A70FC683B1D1B78181C00F08CF8E6
:103110000C23FB181800FFF7E6FFB968331C2A1CC4
:10312000200000F094F803001800BD4605B0F0BD83
:1031300080B584B000AFF8603B1D19605A603B1D3C
:103140001800FFF739FF0200FB6803CA03C3FB68DE
:103150001800BD4604B080BD80B584B000AFF860F3
:10316000B96039000A604B600823FA180C23FB1879
:1031700011001800FEF740F8031E0ED0FA683B005D
:103180001100180000F00CF903001A00012353404D
:10319000DBB2002B01D0012300E00023002B05D07F
:1031A0000C23FB181800FEF738F8DDE7FB68180061
:1031B000BD4604B080BDB0B584B000AFF860B96062
:1031C0003B1D1A70281C00F008F9B968FB68221C26
:1031D000180000F015F903001800BD4604B0B0BD9A
:1031E000B0B584B000AFF860B9603B1D1A70281C00
:1031F00000F027F9B968FB68221C180000F034F9C8
:1032000003001800BD4604B0B0BD80B582B000AF69
:1032100078603B0019703B001800FFF748FF7B689F
:103220001800BD4602B080BDB0B584B000AF3B1DF4
:1032300018703B1D1800FFF73AFF0C23FB18291CE0
:10324000180000F02AF9201CBD4604B0B0BD80B5BE
:1032500086B000AFF860B960391D0A703A0013708B
:10326000BA68FB68D31A9B107B617B69002B37DD42
:10327000FA683B1D1100180000F029F9031E01D067
:10328000FB685FE0FB680133FB60FA683B1D1100DF
:10329000180000F01CF9031E01D0FB6852E0FB6827
:1032A0000133FB60FA683B1D1100180000F00FF9B4
:1032B000031E01D0FB6845E0FB680133FB60FA6840
:1032C0003B1D1100180000F002F9031E01D0FB683D
:1032D00038E0FB680133FB607B69013B7B61C4E73D
:1032E000BA68FB68D31A022B11D0032B02D0012B32
:1032F0001AD026E0FA683B1D1100180000F0E7F82C
:10330000031E01D0FB681DE0FB680133FB60FA6817
:103310003B1D1100180000F0DAF8031E01D0FB6815
:1033200010E0FB680133FB60FA683B1D11001800D8
:1033300000F0CDF8031E01D0FB6803E0FB68013309
:10334000FB60BB681800BD4606B080BD80B584B088
:1033500000AF786039603B68FB60FB681B78032B2B
:1033600010D87B681B68FA6812781100FA685278E6
:103370005B181A767B685B68FA68127801219954A9
:10338000002307E03B681B88044A944663445A4282
:103390005341DBB21800BD4604B080BD0100FFFF01
:1033A00090B583B000AF786039607C683B0018004E
:1033B000FDF70EFF030019002000FFF7C7FF030011
:1033C0001800BD4603B090BD80B582B000AF7860F4
:1033D0007B681800BD4602B080BDB0B584B000AFB8
:1033E0003B1D18703B1D1800FFF7EEFF0C23FB1868
:1033F000291C180000F07FF8201CBD4604B0B0BDA9
:1034000090B585B000AFF860B9603B1D1A700C2311
:10341000FB181800FFF7EEFD3B1D1A78B968F86835
:10342000231C00F077F803001800BD4605B090BDDE
:1034300080B582B000AF78607B681800BD4602B0EE
:1034400080BDB0B584B000AF3B1D18703B1D1800A7
:10345000FFF7EEFF0C23FB18291C180000F08AF878
:10346000201CBD4604B0B0BDB0B584B000AFF8605C
:10347000B9603B1D1A70FC680C23FB181800FFF79D
:1034800032FE3B1D1A78B9682B1C200000F081F831
:1034900003001800BD4604B0B0BD80B582B000AFD7
:1034A00078603B0019703B001800FFF700FE7B6856
:1034B0001800BD4602B080BD80B582B000AF786014
:1034C00039603B681B781800BD4602B080BD80B5EE
:1034D00082B000AF786039607B683A6811001800EC
:1034E000FFF7EAFF03001A0001235340DBB2180084
:1034F000BD4602B080BD80B582B000AF78603B00B1
:1035000019703B001800FFF75FFF7B681800BD468D
:1035100002B080BD80B584B000AFF860B960391DDD
:103520000A703A0013700823FA180C23FB181100D4
:103530001800FDF761FE031E0ED0FA683B1D110056
:10354000180000F0B9F803001A0001235340DBB261
:10355000002B01D0012300E00023002B05D00C2319
:10356000FB181800FDF759FEDDE7FB681800BD46A3
:1035700004B080BD80B582B000AF78603B001970A8
:103580003B001800FFF754FF7B681800BD4602B0EF
:1035900080BD80B586B000AFF860B960391D0A7093
:1035A0003A001370BA68FB68D31A9B107B617B6981
:1035B000002B37DDFA683B1D1100180000F09BF866
:1035C000031E01D0FB685FE0FB680133FB60FA6813
:1035D0003B1D1100180000F08EF8031E01D0FB689F
:1035E00052E0FB680133FB60FA683B1D11001800D4
:1035F00000F081F8031E01D0FB6845E0FB68013351
:10360000FB60FA683B1D1100180000F074F8031EFF
:1036100001D0FB6838E0FB680133FB607B69013B4C
:103620007B61C4E7BA68FB68D31A022B11D0032B65
:1036300002D0012B1AD026E0FA683B1D11001800B9
:1036400000F059F8031E01D0FB681DE0FB68013350
:10365000FB60FA683B1D1100180000F04CF8031ED7
:1036600001D0FB6810E0FB680133FB60FA683B1D8A
:103670001100180000F03FF8031E01D0FB6803E0C2
:10368000FB680133FB60BB681800BD4606B080BD17
:1036900080B582B000AF786039603B681B88054A0E
:1036A000944663445A1E9341DBB21800BD4602B0F3
:1036B00080BDC0460100FFFF90B583B000AF7860C9
:1036C00039607C683B001800FDF782FD030019009B
:1036D0002000FFF7DDFF03001800BD4603B090BDDA
:1036E00080B582B000AF786039603B681B78180005
:1036F000BD4602B080BD80B582B000AF7860396051
:103700007B683A6811001800FFF7EAFF0300180011
:10371000BD4602B080BD000080B582B000AF7860C9
:1037200039607B68012B00D08AE03B68464A9342AF
:1037300000D085E0454B1800FDF7FBF8444B012114
:103740001800FDF7EDF9434B19211800FDF7E8F9D2
:10375000414B1B211800FDF7E3F9404B0D211800E8
:10376000FDF7DEF93E4B10211800FDF7D9F93D4B6E
:1037700009211800FDF7D4F93B4B0A211800FDF789
:10378000CFF93A4B0A211800FDF7CAF9384B0B2143
:103790001800FDF7C5F9374B0B211800FDF7C0F9EC
:1037A000354B05211800FDF7BBF9344B05211800F6
:1037B000FDF7B6F9324B06211800FDF7B1F9314B90
:1037C00006211800FDF7ACF92F4B07211800FDF773
:1037D000A7F92E4B07211800FDF7A2F92C4B072162
:1037E0001800FDF79DF92B4B07211800FDF798F9FC
:1037F000294B07211800FDF793F9284B07211800E2
:10380000FDF78EF9264B07211800FDF789F9254BA6
:1038100007211800FDF784F9234B07211800FDF755
:103820007FF9224B07211800FDF77AF9204B072179
:103830001800FDF775F91F4B07211800FDF770F907
:10384000C046BD4602B080BDFFFF00008C000020D6
:10385000A4000020AC000020B4000020BC00002028
:10386000C4000020CC000020D4000020DC00002098
:10387000E4000020EC000020F4000020FC00002008
:10388000040100200C010020140100201C01002074
:10389000240100202C010020340100203C010020E4
:1038A000440100204C010020540100205C01002054
:1038B000640100206C01002080B582B000AF786008
:1038C00039607B6814333A6811001800FEF7E8F994
:1038D000C046BD4602B080BD80B582B000AF786002
:1038E00039607B6824333A6811001800FEF7D8F974
:1038F000C046BD4602B080BD80B582B000AF7860E2
:1039000039607B6834333A6811001800FEF7C8F953
:10391000C046BD4602B080BD80B582B000AF7860C1
:1039200039607B6854333A681100180000F018FCC5
:10393000C046BD4602B080BD80B584B000AFF8601F
:10394000B9607A603B60BA687B689A4205D9BA6808
:103950003B689A4201D8012300E000231800BD46CD
:1039600004B080BDB0B594B000AF78607B6818003B
:1039700000F011FC03001A0001235340DBB2002BBE
:1039800005D07B689B6E002B01D1012300E0002352
:10399000002B00D09EE17B68180000F0FCFB0300C8
:1039A0001A0001235340DBB2002B58D07B685B7CAC
:1039B00001225340DBB2002B06D07B6870229B5C57
:1039C000002B01D0012400E000247B6824331A007E
:1039D00010257B1911001800FEF7E5FB7B19190073
:1039E000200000F0E9FB7B191800FDF772FC7B68F2
:1039F0005B7C01225340DBB2002B0ED07B6870222F
:103A00009B5C002B09D07B6871229B5C0122534098
:103A1000DBB2002B01D0012400E000247B683433AA
:103A20001A0020257B1911001800FEF7BCFB7B193A
:103A30001900200000F0C0FB7B191800FDF749FCBD
:103A40007B6800229A667B680122DA667B687022B6
:103A5000002199547B687122002199543DE17B68D3
:103A60009B6E5A1C7B689A667B689C6E0A200021BC
:103A7000FCF763FD03009C4209D37B6870229B5CCA
:103A800001225340DBB2002B01D0012300E00023D0
:103A9000002B1BD07B687022012199547B685B7CD2
:103AA00001225340DCB27B6814331A0030257B19A5
:103AB00011001800FEF777FB7B191900200000F0B9
:103AC0007BFB7B191800FDF704FC06E17B689C6E0C
:103AD00001200021FCF73BFD03009C4209D37B68D9
:103AE00071229B5C01225340DBB2002B01D00123E9
:103AF00000E00023002B1BD07B6871220121995428
:103B00007B685B7C01225340DCB27B6844331A0043
:103B100040257B1911001800FEF745FB7B191900A1
:103B2000200000F049FB7B191800FDF7D2FBD4E020
:103B30007B685433180000F05DFB03001A0001237A
:103B40005340DBB2002B00D0C6E07B689C6E0120A6
:103B50000021FCF7FCFC050002200021FCF7F7FC2B
:103B600003000C22B8182A002100FFF7E5FE031E0F
:103B700009D07B689B6EC8211800FCF74BFB0B1E1D
:103B800001D1012300E00023002B06D07B685433D1
:103B90000121180000F03FFB9FE07B689C6E022033
:103BA0000021FCF7D4FC050003200021FCF7CFFC2A
:103BB00003000C22B8182A002100FFF7BDFE031EE7
:103BC00009D07B689B6E64211800FCF723FB0B1E59
:103BD00001D1012300E00023002B06D07B68543381
:103BE0000121180000F017FB77E07B689C6E032032
:103BF0000021FCF7ACFC050004200021FCF7A7FC29
:103C000003000C22B8182A002100FFF795FE031EBE
:103C100009D07B689B6E32211800FCF7FBFA0B1E63
:103C200001D1012300E00023002B06D07B68543330
:103C30000121180000F0EFFA4FE07B689C6E042031
:103C40000021FCF784FC050005200021FCF77FFC27
:103C500003000C22B8182A002100FFF76DFE031E96
:103C600009D07B689B6E19211800FCF7D3FA0B1E54
:103C700001D1012300E00023002B06D07B685433E0
:103C80000121180000F0C7FA27E07B689B6E144AF8
:103C9000934222D97B689B6E19211800FCF7BAFA6F
:103CA0000B1E1AD17B6854331A007B68DB6E190037
:103CB000100000F0B0FA7B689A6EFA2399001000A9
:103CC000FCF7A8FA0B1E08D17B68DB6E5A1C7B68D8
:103CD000DA6602E0C04600E0C046BD4614B0B0BDA2
:103CE0008813000008B4024B9C46043808BC6047A7
:103CF0006539000880B582B000AF78607B685B6989
:103D00005A1C7B685A617B685B69114A944663441C
:103D10005A425341DBB2002B15D07B6800225A6116
:103D20007B681B8B01339AB27B681A837B681B8B81
:103D30003C2B08D17B6800221A837B681B691A8898
:103D4000013292B21A80C046BD4602B080BDC04664
:103D5000A015FFFFF0B589B000AF78607B685B69A4
:103D6000FB617B683D229B5CDBB2052B00D9F3E154
:103D70009A00E34BD3181B689F467B6840331800BA
:103D800000F065FA03001A00FB699B181C787B6839
:103D900018331D007B684033180000F058FA030008
:103DA000EB181B78E31A5A425341DBB2002B12D0B6
:103DB0007B6840330021180000F053FA7B684033E1
:103DC000180000F044FA03005A425341D9B27B680C
:103DD0003C229954C0E17B683D2201219954BBE10A
:103DE0007B681B691800FCF748FB03001A000123DD
:103DF0005340DBB2002B08D07B681B691800FCF72E
:103E000001FB031E01D0012300E00023002B00D1A1
:103E10009BE17B681B691800FCF74EFB7B681B6904
:103E20001800FCF7FCFA7B684033180000F00FFA2A
:103E300003001A00FB699B1819787B683F2299548C
:103E40007B684033180000F002FA03001A000821D2
:103E50007B181A707B683F229B5CDAB27B185A7021
:103E60007B181800FDF77AF903001C007B683833D3
:103E70001800FDF7B7F90300221C1A807B683D2269
:103E80000221995461E17B681B691800FCF7DAFA9A
:103E9000031E00D15BE17B681B691800FCF7DFFAA9
:103EA00003001800FCF7A0FA7B683F229B5CDDB2A0
:103EB0007B6818331C007B684033180000F0C7F99A
:103EC0000300E3182A1C1A707B6838331800FDF7CA
:103ED000A4F905007B6828331C007B681C3318009C
:103EE000FEF7BAFF030019002000FEF73AFC0300BA
:103EF0001800FDF7B1F90300FB600C23FB18190053
:103F00002800FDF779F9031E07D07B683E229B5CF1
:103F1000D9B27B683D22995419E17B6820331C009B
:103F20007B681C331800FEF797FF0300E31801229B
:103F30001A707B681C330021180000F0B3F97B680D
:103F400028331C007B681C331800FEF785FF030034
:103F500019002000FEF705FC03007C681800FDF73F
:103F60006AF90300A3637B6840330021180000F066
:103F7000B5F97B683D22012199547B683E220521D9
:103F80009954E4E07B681B691800FCF776FA03009B
:103F90001A0001235340DBB2002B08D07B681B6959
:103FA0001800FCF72FFA031E01D0012300E00023C4
:103FB000002B00D1CDE07B6820331800FEF76CFFAA
:103FC00004007B6820331800FEF76FFF0100132008
:103FD0003B1801221A703B181A00200000F08FF9DC
:103FE00003007B617B6820331800FEF75EFF020050
:103FF0007B699B1A5A425341DBB2002B07D07B6886
:104000003E229B5CD9B27B683D229954A4E07B6838
:1040100020331800FEF740FF02007B6919001000F2
:1040200000F082F902007B685A627B681B69180005
:10403000FCF742FA04007B685B6A1A00314B1100FE
:10404000180000F086F903001B7819002000FCF727
:1040500051FA7B683D22042199547AE07B681B6900
:104060001800FCF7EFF9031E00D174E07B681B69B0
:104070001800FCF7F4F903001800FCF7B5F97B68A9
:1040800028331A007B685B6A19001000FEF769FB91
:104090000300180000F06DF905007B6828331A0052
:1040A0007B685B6A19001000FEF75BFB03001800D9
:1040B00000F06CF903001B22BC18321C1900280008
:1040C00000F071F9030023707B685B6A1B22BA1849
:1040D000127801214A40D0B27A682021D3185B18A7
:1040E000021C1A707B68180000F080F9031E01D0D2
:1040F000032100E000217B683D2299542BE0C0465B
:10410000984F0008944F00087B684033180000F077
:1041100087F903005A1E9341DBB2002B04D07B6861
:104120003D220121995417E07B68180000F05EF9E8
:10413000031E01D0032100E000217B683D22995439
:104140007B683E220021995406E0C04604E0C04648
:1041500002E0C04600E0C046C046BD4609B0F0BD22
:1041600090B587B000AF786039603A6808243B1991
:104170001100180000F06EF97A683B191100180060
:1041800000F08AF93B191800FDF733FA7B68180034
:10419000BD4607B090BD80B582B000AF78607B6847
:1041A0005B6E1800FCF770FA03005A1E9341DBB2F5
:1041B0001800BD4602B080BD90B587B000AF0200C8
:1041C0003960FB1D1A70FB1D1B78002B0ED03A685E
:1041D00008243B1911001800FDF7E5FF3B191800F2
:1041E00000F07BF93B191800FDF773F8C046BD4697
:1041F00007B090BD80B582B000AF78607B681800D2
:10420000FCF765FB03001A0001235340DBB21800E2
:10421000BD4602B080BDB0B582B000AF78603960F5
:104220007B681800FCF753FB031E01D000F0D3FCA1
:104230007B68DC687D683B001800FCF755FB0300D9
:1042400019002800A047C046BD4602B0B0BD80B5E9
:1042500082B000AF78607B681B781800BD4602B062
:1042600080BD80B584B000AF786039600F23FB1843
:104270007A6812781A707B681B780133DAB27B682F
:104280001A707B681B78032B02D87B681A7800E0D1
:1042900000227B681A700F23FB181B781800BD469C
:1042A00004B080BD80B584B000AF786039607B68B1
:1042B0001B68FB607B681B685A1C7B681A607B6804
:1042C0001B68012B02D87B681A6800E000227B681B
:1042D0001A60FB681800BD4604B080BD80B582B08E
:1042E00000AF78600A00FB1C1A707B68FA1C127819
:1042F0001A707B681B781800BD4602B080BD80B57F
:1043000084B000AFF860B9607A607B68180000F094
:10431000F6F80200B968FB68180000F000F9030025
:104320001800BD4604B080BDB0B582B000AF786063
:1043300039607C683B1D1800FEF7D5FE3B682A1CDF
:104340001900200000F002F903001800BD4602B079
:10435000B0BD80B582B000AF786039607B683A68E4
:104360001100180000F000F903001800BD4602B06B
:1043700080BD80B582B000AF78607B681800FCF724
:104380005AFF03001800BD4602B080BD80B582B060
:1043900000AF78607B681800FCF75EFF0300180030
:1043A000BD4602B080BDB0B586B000AFF860B96060
:1043B0003B1D1A700823FB181800FCF7FFFE0400D1
:1043C000B968FB682A1C180000F0DAF803007B616A
:1043D0001423FB181800FCF7F1FE0300E31A5A42FD
:1043E0005341DBB21800BD4606B0B0BDB0B582B0D7
:1043F00000AF78607B6820331800FEF74DFD0400A5
:104400007B6820331800FEF750FD03002A1C1900BA
:10441000200000F0CAF803001800BD4602B0B0BD8D
:1044200080B582B000AF78607B681B780133DAB268
:104430007B681A707B681B78032B02D87B681A781C
:1044400000E000227B681A707B681B781800BD466C
:1044500002B080BD80B582B000AF786039607B6803
:104460001800FCF715FA3B681800FFF7C3FE031E9F
:104470000DD03B689B6878683968022298473B6892
:10448000DA687B68DA603B689A687B689A607B6868
:104490001800BD4602B080BD80B582B000AF786024
:1044A00039607B683A6811001800FEF7E4F87B6811
:1044B00008331A003B68083319001000FEF706F9AC
:1044C0007B680C331A003B680C331900100000F0B5
:1044D0008BF8C046BD4602B080BD80B582B000AF4B
:1044E00078607B681800FDF7B5FB031E03D07B687E
:1044F0001800FDF7C0FBC046BD4602B080BD80B5C8
:1045000084B000AF78607A680C23FB1811001800A3
:1045100000F08BF8FB681800BD4604B080BDB0B554
:1045200084B000AFF860B9607A60FC680C23FB18B7
:104530001800FEF7D8FD7A68B9682B1C200000F03F
:1045400081F803001800BD4604B0B0BD80B584B04A
:1045500000AFF860B9603B1D1A70BA68FB68D31AE7
:104560001800BD4604B080BD80B582B000AF786051
:1045700039607A683B68D3181800BD4602B080BD28
:10458000B0B584B000AFF860B9603B1D1A70281C4C
:1045900000F0DFF8B968FB68221C180000F0ECF8A6
:1045A00003001800BD4604B0B0BD90B585B000AFA3
:1045B000F860B9603B1D1A70B968FB68221C1800CE
:1045C00000F0F6F803001A0001235340DBB2180094
:1045D000BD4605B090BD80B582B000AF78607B6805
:1045E0001800BD4602B080BD80B584B000AF7860D1
:1045F00039607B681800FFF7EEFF03001B68FB6063
:104600003B681800FFF7E7FF03001A687B681A6031
:104610000C23FB181800FFF7DEFF03001A683B6845
:104620001A60C046BD4604B080BD80B582B000AF00
:10463000786039607B683A681A607B681800BD460C
:1046400002B080BD80B586B000AFF860B9607A6016
:104650003A001370BA68FB68D31A9B107B617B69C0
:10466000002B37DDFA683B1D1100180000F0B7F889
:10467000031E01D0FB685FE0FB680133FB60FA6852
:104680003B1D1100180000F0AAF8031E01D0FB68C2
:1046900052E0FB680133FB60FA683B1D1100180013
:1046A00000F09DF8031E01D0FB6845E0FB68013374
:1046B000FB60FA683B1D1100180000F090F8031E23
:1046C00001D0FB6838E0FB680133FB607B69013B8C
:1046D0007B61C4E7BA68FB68D31A022B11D0032BA5
:1046E00002D0012B1AD026E0FA683B1D11001800F9
:1046F00000F075F8031E01D0FB681DE0FB68013374
:10470000FB60FA683B1D1100180000F068F8031EFA
:1047100001D0FB6810E0FB680133FB60FA683B1DC9
:104720001100180000F05BF8031E01D0FB6803E0E5
:10473000FB680133FB60BB681800BD4606B080BD56
:1047400080B582B000AF78607B681800BD4602B0CB
:1047500080BDB0B584B000AF3B1D18703B1D180084
:10476000FFF7EEFF0C23FB18291C180000F049F896
:10477000201CBD4604B0B0BDB0B584B000AFF86039
:10478000B9603B1D1A703B1D1B78181C00F048F8DF
:104790000C23FB181800FEF72DFCB968F8682B1CD9
:1047A000221C00F050F803001800BD4604B0B0BD54
:1047B00090B585B000AFF860B9603B1D1A70B9685C
:1047C000FB68221C180000F06EF80200BB689B1A00
:1047D0005A425341DBB21800BD4605B090BD80B5CA
:1047E00082B000AF786039603B681A787B681B68DC
:1047F0001B78D31A5A425341DBB21800BD4602B0AF
:1048000080BD80B582B000AF78603B0019703B007E
:104810001800FFF795FF7B681800BD4602B080BD09
:10482000B0B584B000AF3B1D18703B1D1800FFF7FA
:1048300087FF0C23FB18291C180000F049F8201CE6
:10484000BD4604B0B0BD80B584B000AFF860B960BB
:10485000391D0A703A0013700823FA180C23FB184C
:1048600011001800FCF7C8FC031E0ED0FA683B1DAF
:104870001100180000F050F803001A000123534003
:10488000DBB2002B01D0012300E00023002B05D078
:104890000C23FB181800FCF7C0FCDDE7FB681800D0
:1048A000BD4604B080BDB0B584B000AFF860B9605B
:1048B0003B1D1A70281C00F051F8B968FB68221CD7
:1048C000180000F05EF803001800BD4604B0B0BD4B
:1048D00080B582B000AF78603B0019703B001800D3
:1048E000FFF72EFF7B681800BD4602B080BD0000B8
:1048F00080B582B000AF78603B0019803B001B8818
:10490000044A944663445A425341DBB21800BD4600
:1049100002B080BD0100FFFF90B583B000AF7860AA
:1049200039607C683B001800FCF752FC03001B88D0
:10493000191C2000FFF7DCFF03001A00012353407D
:10494000DBB21800BD4603B090BD80B582B000AFA9
:1049500078607B681800BD4602B080BDB0B584B0F9
:1049600000AF3B1D18703B1D1800FFF7EEFF0C2336
:10497000FB18291C180000F01DF8201CBD4604B0CF
:10498000B0BDB0B584B000AFF860B9603B1D1A701F
:10499000FC680C23FB181800FEF7A5FB3B1D1A78DA
:1049A000B9682B1C200000F014F803001800BD4665
:1049B00004B0B0BD80B582B000AF78603B00197024
:1049C0003B001800FFF7C1FF7B681800BD4602B02E
:1049D00080BD80B586B000AFF860B960391D0A703F
:1049E0003A001370BA68FB68D31A9B107B617B692D
:1049F000002B37DDFA683B1D1100180000F073F83A
:104A0000031E01D0FB685FE0FB680133FB60FA68BE
:104A10003B1D1100180000F066F8031E01D0FB6872
:104A200052E0FB680133FB60FA683B1D110018007F
:104A300000F059F8031E01D0FB6845E0FB68013324
:104A4000FB60FA683B1D1100180000F04CF8031ED3
:104A500001D0FB6838E0FB680133FB607B69013BF8
:104A60007B61C4E7BA68FB68D31A022B11D0032B11
:104A700002D0012B1AD026E0FA683B1D1100180065
:104A800000F031F8031E01D0FB681DE0FB68013324
:104A9000FB60FA683B1D1100180000F024F8031EAB
:104AA00001D0FB6810E0FB680133FB60FA683B1D36
:104AB0001100180000F017F8031E01D0FB6803E096
:104AC000FB680133FB60BB681800BD4606B080BDC3
:104AD00080B582B000AF786039603B681B78180001
:104AE000BD4602B080BD80B582B000AF786039604D
:104AF0007B683A6811001800FFF7EAFF030018000E
:104B0000BD4602B080BD000080B500AF034B190068
:104B10000120FEF701FEBD4680BDC046FFFF00003C
:104B20000D4885460D480E490E4A002302E0D45830
:104B3000C4500433C4188C42F9D30B4A0B4C0023E5
:104B400001E013600432A242FBD3FCF75BFC00F0EF
:104B50005FF8FCF77DFDFEE700200020000000204C
:104B600070000020BC4F000870000020E40100200D
:104B7000FEE710B5041E00D10134200000F06CF8EF
:104B8000002807D100F00AF8002801D100F02AF827
:104B90008047F2E710BD10B500F00AF8014B186825
:104BA0007047C046D001002010B5804700F01AF8C9
:104BB000024B10B51868FFF7F7FFC0460800002049
:104BC0000B0010B50100180000F014F810BD10B56E
:104BD00000F004F810BD10B500F004F810B500F0B6
:104BE00045F810BD10B5062000F038F9012000F09E
:104BF00075F9000010B5040004481300002804D023
:104C00000A000220210000E000BF10BD00000000EB
:104C100070B500260C4D0D4C641BA410A64209D1A2
:104C2000002600F05DF90A4D0A4C641BA410A64250
:104C300005D170BDB300EB5898470136EEE7B300DD
:104C4000EB5898470136F2E7B04F0008B04F000824
:104C5000B04F0008B84F000810B5034B01001868AA
:104C600000F062F810BDC0460C00002010B5034BE8
:104C70000100186800F00EF810BDC0460C000020BE
:104C8000002310B59A4200D110BDCC5CC45401334E
:104C9000F8E7000070B50500002910D00C1F23684C
:104CA000002B00DAE418280000F0F8F81D4A136819
:104CB000002B05D163601460280000F0F0F870BD8F
:104CC000A34209D9216860188342F3D118685B6850
:104CD00041182160EEE713005A68002A01D0A24271
:104CE000F9D919685818A0420BD12068091858182A
:104CF00019608242E0D110685268411819605A6008
:104D0000DAE7A04202D90C232B60D5E721686018AE
:104D1000824203D1106852684118216062605C6071
:104D2000CAE7C046D4010020032370B5CD1C9D43C3
:104D3000083506000C2D1ED20C25A9421DD83000C6
:104D400000F0ACF8254A14682100002919D1244C40
:104D50002368002B03D1300000F044F820602900C4
:104D6000300000F03FF8431C2BD10C23300033609F
:104D700000F095F803E0002DDFDA0C23336000200B
:104D800070BD0B685B1B19D40B2B03D90B60CC18BF
:104D9000256003E04B688C420DD11360300000F0B9
:104DA0007EF8200007220B30231D9043C31AE7D062
:104DB0005A42E250E4E763600C00EFE70C004968F8
:104DC000C3E70323C41C9C43A042E1D0211A300056
:104DD00000F008F8431CDBD1C7E7C046D40100202F
:104DE000D8010020002370B5064C050008002360A0
:104DF00000F066F8431C03D12368002B00D02B6021
:104E000070BDC046E001002070B504000D001F29F0
:104E100004D9162303600120404270BD436C002B6F
:104E200004D08A009B181A68002A08D1200000F0DC
:104E300031F82A000100200000F01AF8EDE7002008
:104E4000012AEAD0511C03D1162301302360E4E784
:104E5000002428001C6090472000DEE710B5034BBB
:104E600001001868FFF7D0FF10BDC0460C000020FD
:104E7000002370B5064C050008001100236000F007
:104E800017F8431C03D12368002B00D02B6070BDA2
:104E9000E001002010B500F003F810BD7047704726
:104EA00058220120014B40421A607047E001002067
:104EB00058220120014B40421A607047E001002057
:104EC000044A1368002B00D1034B18181060180017
:104ED0007047C046DC010020E8010020FEE7C04624
:104EE000F8B5C046F8BC08BC9E467047F8B5C04649
:084EF000F8BC08BC9E467047A7
:104EF8000000000000000000B9380008D938000898
:104F0800F9380008C920000819390008653900086F
:104F1800FCFFFFFF00000000E53C00080000000067
:104F280000000000F53C0008000000000000000040
:104F3800553D00080000000000000000B9130008FB
:104F48000000000000000000974B0008974B000885
:104F5800974B0008974B0008974B0008000000008B
:104F680000000000974B000800000000000000004F
:104F78003D0A00080000000000000000974B0008F0
:104F88000000000000000000974B00081A190000FC
:104F98007A3D0008E03D0008863E0008843F00088E
:084FA8005C400008084100080C
:084FB000E9000008094B0008AC
:044FB800C10000082C
:104FBC000000000021020008E54B00081000002052
:104FCC0000000000000000000000000000000000D5
:104FDC0000000000000000000000000000000000C5
:104FEC0000000000000000000000000000000000B5
:104FFC0000000000000000000000000000000000A5
:10500C000000000000000000000000000000000094
:10501C000000000000000000000000000000000084
:0400000508004B2183
:00000001FF
