:020000040800F2
:1000000000200020C5130008111400081114000876
:1000100000000000000000000000000000000000E0
:1000200000000000000000000000000011140008A3
:100030000000000000000000111400083505000851
:1000400011140008510800081114000811140008C8
:100050001114000895090008E90900083D0A000884
:100060001114000885080008A9080008E90800081C
:1000700011140008F10800081509000811140008FF
:100080003909000811140008000000005D0900088B
:100090001114000863090008690900081114000818
:1000A0001114000811140008111400087109000847
:1000B00011140008000000001114000800000000E6
:1000C00010B5064C2378002B07D1054B002B02D02E
:1000D000044800E000BF0123237010BD6800002029
:1000E0000000000040150008044B10B5002B03D0A1
:1000F0000349044800E000BF10BDC04600000000F6
:100100006C00002040150008002243088B4274D385
:1001100003098B425FD3030A8B4244D3030B8B4208
:1001200028D3030C8B420DD3FF22090212BA030C11
:100130008B4202D31212090265D0030B8B4219D3F2
:1001400000E0090AC30B8B4201D3CB03C01A524112
:10015000830B8B4201D38B03C01A5241430B8B425A
:1001600001D34B03C01A5241030B8B4201D30B0343
:10017000C01A5241C30A8B4201D3CB02C01A52416A
:10018000830A8B4201D38B02C01A5241430A8B422D
:1001900001D34B02C01A5241030A8B4201D30B0216
:1001A000C01A5241CDD2C3098B4201D3CB01C01A30
:1001B000524183098B4201D38B01C01A524143093A
:1001C0008B4201D34B01C01A524103098B4201D328
:1001D0000B01C01A5241C3088B4201D3CB00C01A95
:1001E000524183088B4201D38B00C01A524143080D
:1001F0008B4201D34B00C01A5241411A00D2014632
:10020000524110467047FFE701B5002000F006F8A4
:1002100002BDC0460029F7D076E770477047C04658
:1002200080B582B000AF386079603B681800BD4689
:1002300002B080BD80B582B000AF78603960012225
:100240003B689A4013001A007B689A61C046BD461D
:1002500002B080BD80B582B000AF786039603B6885
:10026000103301229A4013001A007B689A61C0463D
:10027000BD4602B080BD80B582B000AF7860396005
:100280007B681B6901213A6891400A0013405A1E9D
:100290009341DBB21800BD4602B080BD80B582B08C
:1002A00000AF786039603A687B6811001800FFF78A
:1002B000E2FF031E06D03A687B6811001800FFF7C2
:1002C000C9FF05E03A687B6811001800FFF7B2FF2C
:1002D000C046BD4602B080BD80B582B000AF786038
:1002E00039603B681800BD4602B080BD80B584B05F
:1002F00000AFF860B9607A60FB68BA681A60FB68A2
:100300007A685A60FB681800BD4604B080BD80B5AD
:1003100082B000AF78607B681A687B685B68190000
:100320001000FFF7A8FF03001800BD4602B080BD13
:1003300080B582B000AF78607B681A687B685B68C4
:1003400019001000FFF7AAFFC046BD4602B080BDED
:1003500090B585B000AF78600A00FB1C1A700F23BF
:10036000FC187B681800FFF7D2FF03002370FB1C0A
:100370001B78002B03D07B681800FFF7D9FF0F23F1
:10038000FA18FB1C12781B78D31A5A1E9341DBB261
:100390001800BD4605B090BD80B582B000AF786052
:1003A00039607B683A685A60C046BD4602B080BD7D
:1003B00080B582B000AF78607B6800229A60C0464A
:1003C000BD4602B080BD80B582B000AF78600A0043
:1003D000FB1C1A70FB1C1B7801221340DAB27B68ED
:1003E00001210A4092001968042081430A431A60DF
:1003F000C046BD4602B080BD80B582B000AF786017
:100400007B681A6802210A431A60C046BD4602B0E2
:1004100080BD80B582B000AF78600A00FB1C1A7006
:100420007B68FA1C127801210A4019680120814377
:100430000A431A60C046BD4602B080BD80B582B096
:1004400000AF786039607B683A681100180000F0EE
:1004500013FCC046BD4602B080BD90B587B000AF6A
:1004600078607B687B617B69180000F024FC0300E6
:10047000FB607B69180000F03BFC0300BB600823B5
:10048000FA180C243B191100180000F041FC031E5F
:1004900010D03B19180000F05AFC03003B613B6987
:1004A0001B681B683A69100098473B19180000F058
:1004B00040FCE4E7C046BD4607B090BD80B582B0C1
:1004C00000AF78607B6800221A607B6800225A6067
:1004D0007B681800BD4602B080BD80B582B000AF19
:1004E00078607B681800FFF7E9FF7B681800BD465D
:1004F00002B080BD80B582B000AF78607B68180024
:10050000FFF7EBFF7B6800229A607B680022DA60CD
:100510007B6800221A617B6801225A6100F022FC8C
:100520000300180000F026FC7B681800BD4602B0EE
:1005300080BD000080B500AF034B180000F07AF8D2
:10054000C046BD4680BDC0468400002080B582B054
:1005500000AF78607B6800221A607B6800225A60D6
:100560007B681800BD4602B080BD000080B582B037
:1005700000AF78607B6804331800FFF7E7FF044A98
:100580007B681A607B681800BD4602B080BDC0461B
:100590007815000880B582B000AF78607B681800DD
:1005A000FFF7E4FF054A7B681A607B6800221A7334
:1005B0007B681800BD4602B080BDC0466C150008BF
:1005C00080B582B000AF786039607B681800FFF7B3
:1005D000E1FF0A4A7B681A607B6800221A617B6827
:1005E00000225A613A687B681100180000F038F860
:1005F0007B681800BD4602B080BDC046601500088B
:1006000080B582B000AF78607B685B695A1C7B68FC
:100610005A61C046BD4602B080BD80B582B000AF11
:1006200078607B681B681800FFF717FFC046BD465F
:1006300002B080BD80B582B000AF78607B680833BF
:100640001800FFF70AFF7B68103318007B685B69AE
:100650007A68190000F0B8FBC046BD4602B080BD04
:1006600080B582B000AF786039607B683A681A6103
:100670007B68180000F01CF8C046BD4602B080BD83
:1006800080B582B000AF78607B6859697B681A6971
:10069000002391425B41DBB2002B04D07B68002237
:1006A0005A61012300E000231800BD4602B080BD5E
:1006B00080B582B000AF78607B681B7B012253401D
:1006C000DBB2002B08D07B6801221A737A68044BD6
:1006D00011001800FFF7B2FEC046BD4602B080BD53
:1006E0008400002080B582B000AF78600A00FB1C57
:1006F0001A707B6800221A607B68FA1C12781A71E3
:100700007B681800BD4602B080BD80B584B000AFE4
:1007100078607B681B68FB60FB68002B09D0FB6876
:100720001B681B68FA6810009847FB685B68FB60F1
:10073000F2E7C046BD4604B080BD80B582B000AFD0
:1007400078607B682033012252421A607B6818006F
:10075000BD4602B080BD80B582B000AF78607B68D6
:100760001800BD4602B080BD90B583B000AF786080
:1007700039603B68DBB2013B9B0001229A401300C9
:100780001C007B6804331800FFF7E5FF03001C60C2
:10079000C046BD4603B090BD80B582B000AF786062
:1007A0007B681A8A01218A431A82C046BD4602B07C
:1007B00080BD80B582B000AF78607B681F22134097
:1007C0001800BD4602B080BD80B582B000AF786031
:1007D0007B681800FFF7EDFF02000123934018002B
:1007E000BD4602B080BD80B582B000AF7860396090
:1007F0007B681800BD4602B080BD80B582B000AFF6
:1008000078607B681B681800BD4602B080BD80B56B
:1008100082B000AF78607B681800BD4602B080BD32
:1008200080B582B000AF786039607B6814331800FF
:10083000FFF7EDFF03001B6801213A6891400A00B1
:1008400013405A1E9341DBB21800BD4602B080BD72
:1008500080B500AF00F0DEFA030010211800FFF7AA
:10086000DFFF031E03D0064B1800FFF74EFF00F01A
:10087000D1FA0300180000F0D5FAC046BD4680BD8D
:100880009C00002080B500AF064B1800FFF73DFF2D
:1008900000F0F0FA030001211800FFF765FFC046E1
:1008A000BD4680BDC400002080B500AF0C4B1800D1
:1008B000FFF72BFF00F0DEFA030002211800FFF71C
:1008C00053FF084B1800FFF720FF00F0D3FA030096
:1008D00003211800FFF748FFC046BD4680BDC04653
:1008E000CC000020D400002080B500AFFEE700005F
:1008F00080B500AF064B1800FFF707FF00F0C8FAFD
:1009000003001800FFF748FFC046BD4680BDC04643
:10091000B400002080B500AF064B1800FFF7F5FECD
:1009200000F0B6FA03001800FFF736FFC046BD46D8
:1009300080BDC046B400002080B500AF064B180053
:10094000FFF7E3FE00F0ACFA03001800FFF724FF06
:10095000C046BD4680BDC046BC00002080B500AF8B
:10096000FEE780B500AFFEE780B500AFFEE7000010
:1009700080B500AF064B1800FFF7C7FE00F098FAED
:1009800003001800FFF7D9FEC046BD4680BDC04633
:10099000AC00002080B500AF00F03CFA030000215D
:1009A0001800FFF73DFF031E03D00D4B1800FFF7A3
:1009B000ACFE00F02FFA030001211800FFF730FF12
:1009C000031E03D0074B1800FFF79FFE00F022FA2A
:1009D0000300180000F074FAC046BD4680BDC04652
:1009E000EC000020F400002080B500AF00F012FA07
:1009F000030002211800FFF713FF031E03D00D4B65
:100A00001800FFF782FE00F005FA0300032118002A
:100A1000FFF706FF031E03D0074B1800FFF775FE14
:100A200000F0F8F90300180000F08DFAC046BD464A
:100A300080BDC046FC0000200401002080B500AF4E
:100A400000F0E8F9030004211800FFF7E9FE031E97
:100A500003D04E4B1800FFF758FE00F0DBF90300FF
:100A600005211800FFF7DCFE031E03D0484B1800D9
:100A7000FFF74BFE00F0CEF9030006211800FFF748
:100A8000CFFE031E03D0434B1800FFF73EFE00F0DD
:100A9000C1F9030007211800FFF7C2FE031E03D0AF
:100AA0003D4B1800FFF731FE00F0B4F903000821B8
:100AB0001800FFF7B5FE031E03D0384B1800FFF7F0
:100AC00024FE00F0A7F9030009211800FFF7A8FE93
:100AD000031E03D0324B1800FFF717FE00F09AF9FF
:100AE00003000A211800FFF79BFE031E03D02D4BC5
:100AF0001800FFF70AFE00F08DF903000B21180023
:100B0000FFF78EFE031E03D0274B1800FFF7FDFDF5
:100B100000F080F903000C211800FFF781FE031E8E
:100B200003D0224B1800FFF7F0FD00F073F903002B
:100B30000D211800FFF774FE031E03D01C4B180094
:100B4000FFF7E3FD00F066F903000E211800FFF740
:100B500067FE031E03D0174B1800FFF7D6FD00F009
:100B600059F903000F211800FFF75AFE031E03D0A6
:100B7000114B1800FFF7C9FD00F04CF903001800F5
:100B800000F024FAC046BD4680BDC0460C010020DE
:100B9000140100201C010020240100202C01002051
:100BA000340100203C010020440100204C010020C1
:100BB000540100205C0100206401002080B500AFDA
:100BC0000F4B1B68012213400AD100F043FA0100C9
:100BD0000C4B0D221800FFF789FB094B01221A600C
:100BE00000F010F90300180000F03CFA054B1B68F8
:100BF000180000F045FA034B1800BD4680BDC04602
:100C0000740100206C01002080B58EB000AFFFF7AA
:100C1000D5FF03003B63174A18217B181A607B1825
:100C200000225A607B1800229A607B1800221A73F7
:100C30007B1800221A617B1800225A61C82000210B
:100C4000FFF7EEFA02003B0011001800FFF7B8FCB6
:100C500000F088F803007B633B001800FFF710FDED
:100C600003001A003B6B11001800FFF771FB30BF47
:100C7000F2E7C0466015000880B582B000AF78602A
:100C800039607B685A683B685A607B685B68002BF8
:100C900003D07B685B683A689A607B683A685A6000
:100CA0007B681B68002B02D17B683A681A60C046DB
:100CB000BD4602B080BD80B584B000AF78607B686F
:100CC0001A680C23FB181100180000F0EBF9FB6800
:100CD0001800BD4604B080BD80B582B000AF78601A
:100CE0007B6800221A607B681800BD4602B080BD98
:100CF00080B584B000AF78600023FB600C23FB1844
:100D00001800FFF7E9FFFB681800BD4604B080BD7E
:100D100080B582B000AF786039607B681A683B6844
:100D20001B68D31A5A1E9341DBB21800BD4602B0AD
:100D300080BD80B582B000AF78607B681B689A6820
:100D40007B681A607B681800BD4602B080BD80B524
:100D500082B000AF78607B681B681800BD4602B0A7
:100D600080BD000080B500AF014B1800BD4680BDBE
:100D700010E000E080B584B000AF7860114BFB60FC
:100D80007B6800211800FFF744FB0E4A7B681100C6
:100D90001800FFF701FB7B681800FFF709FB7B6871
:100DA00001211800FFF70FFB7B681800FFF724FBF9
:100DB0007B6801211800FFF72CFBC046BD4604B03C
:100DC00080BDC0467FBB000080B584B000AFF86036
:100DD000B9607A60FB681A68511CFB681960B968D1
:100DE0001000FFF717FA0B005A425341DBB2002BF9
:100DF00003D03B1D1800FFF710FCC046BD4604B0F1
:100E000080BD000080B500AF014B1800BD4680BD1D
:100E10000010024080B500AF014B1800BD4680BDF8
:100E200000040140B0B588B000AF78600023FB60DB
:100E300010243B190C2579191022180000F03FF9F5
:100E40003B190121180000F053F93B19180000F07C
:100E500046F97B19180000F077F904007B68143319
:100E60001800FFF7D4FC03001C607B681800BD4627
:100E700008B0B0BD80B500AF044B19000820FFF7E3
:100E80002BFA03001800BD4680BDC046000002409A
:100E900080B500AF014B1800BD4680BD002C01405D
:100EA00080B500AF014B1800BD4680BD0004004076
:100EB00080B500AF014B1800BD4680BD0038014031
:100EC00090B589B000AF78600023BB600C243B195B
:100ED0000822B9180022180000F0F1F83B1901218E
:100EE000180000F005F93B19180000F0F8F801238C
:100EF000FB61FB69012B14DCFA6914243B190821FE
:100F00007918180000F0DBF83B190121180000F0F7
:100F1000EFF83B19180000F0E2F8FB690133FB61C0
:100F2000E7E70823FB18180000F00EF904007B68BF
:100F300014331800FFF76BFC03001C607B6818007B
:100F4000BD4609B090BD90B589B000AF7860002370
:100F5000BB600C243B190822B9180222180000F0CB
:100F6000AEF83B190121180000F0C2F83B19180037
:100F700000F0B5F80323FB61FB69032B14DCFA696D
:100F800014243B1908217918180000F098F83B192F
:100F90000121180000F0ACF83B19180000F09FF890
:100FA000FB690133FB61E7E70823FB18180000F039
:100FB000CBF804007B6814331800FFF728FC03000B
:100FC0001C607B681800BD4609B090BD90B589B023
:100FD00000AF78600023BB600C243B190822B918CD
:100FE0000422180000F06BF83B190121180000F0F2
:100FF0007FF83B19180000F072F80523FB61FB69CC
:101000000F2B14DCFA6914243B19082179181800F5
:1010100000F055F83B190121180000F069F83B1960
:10102000180000F05CF8FB690133FB61E7E7082377
:10103000FB18180000F088F804007B6814331800CF
:10104000FFF7E5FB03001C607B681800BD4609B094
:1010500090BD000080B500AF014B1800BD4680BDBB
:101060000008004880B582B000AF78607B685A699C
:10107000802109030A435A61C046BD4602B080BDC3
:1010800080B582B000AF78607B680121180000F065
:1010900069F87B680021180000F080F8C046BD4662
:1010A00002B080BD80B582B000AF786039607B68E7
:1010B0003A681A607B681800BD4602B080BD80B5F2
:1010C00084B000AFF860B9607A607A68B968FB688C
:1010D000180000F07FF8F868BD4604B080BD80B508
:1010E00082B000AF78607B681800BD4602B080BD5A
:1010F00080B582B000AF78600A00FB1C1A70FB1C40
:101100001B78002B0DD07B685B681800FFF75CFB39
:1011100001007B681B681A687B681B680A431A60B9
:101120000DE07B685B681800FFF74EFB0300DA43B5
:101130007B681B6819687B681B680A401A607B68BB
:101140001800BD4602B080BD80B582B000AF7860A7
:101150007B681800FFF751FB03001800BD4602B082
:1011600080BD000080B582B000AF78600A00FB1C33
:101170001A70FB1C1B7803221340DAB27B68032130
:101180000A4092061968044801400A431A607B68C5
:101190001800BD4602B080BDFFFFFFF380B582B0EE
:1011A00000AF78600A00FB1C1A70FB1C1B7803223E
:1011B0001340DAB27B6803210A409206D9680448DA
:1011C00001400A43DA607B681800BD4602B080BD6A
:1011D000FFFFFFF380B584B000AFF860B9607A60BC
:1011E000BB687A6811001800FFF7FDFA0200FB687F
:1011F0001A607B681800FFF7DCFA0200FB685A608F
:10120000FB681800BD4604B080BD000080B582B008
:1012100000AF786039607B68012B00D08AE03B68C2
:10122000464A934200D085E0454B1800FFF762F92B
:10123000444B01211800FFF755FA434B19211800C0
:10124000FFF750FA414B1B211800FFF74BFA404BB8
:101250000D211800FFF746FA3E4B10211800FFF74A
:1012600041FA3D4B09211800FFF73CFA3B4B0A219C
:101270001800FFF737FA3A4B0A211800FFF732FA45
:10128000384B0B211800FFF72DFA374B0B211800B4
:10129000FFF728FA354B05211800FFF723FA344BE6
:1012A00005211800FFF71EFA324B06211800FFF740
:1012B00019FA314B06211800FFF714FA2F4B0721BA
:1012C0001800FFF70FFA2E4B07211800FFF70AFA54
:1012D0002C4B07211800FFF705FA2B4B07211800AC
:1012E000FFF700FA294B07211800FFF7FBF9284BFD
:1012F00007211800FFF7F6F9264B07211800FFF722
:10130000F1F9254B07211800FFF7ECF9234B0721D2
:101310001800FFF7E7F9224B07211800FFF7E2F961
:10132000204B07211800FFF7DDF91F4B072118009C
:10133000FFF7D8F9C046BD4602B080BDFFFF0000F0
:10134000840000209C000020A4000020AC000020AD
:10135000B4000020BC000020C4000020CC0000200D
:10136000D4000020DC000020E4000020EC0000207D
:10137000F4000020FC000020040100200C010020EB
:10138000140100201C010020240100202C01002059
:10139000340100203C010020440100204C010020C9
:1013A000540100205C0100206401002080B500AFE2
:1013B000034B19000120FFF729FFBD4680BDC04641
:1013C000FFFF00000C4885460C480D490D4A0023DC
:1013D00002E0D458C4500433C4188C42F9D30A4AEA
:1013E0000A4C002301E013600432A242FBD300F058
:1013F00027F8FFF709FCFEE700200020000000208E
:101400006800002088150008680000207C0100208A
:10141000FEE710B500F004F810B5804700F008F8BA
:10142000024B10B51868FFF7F7FFC0460000002018
:1014300010B5062000F052F8012000F07FF80000FF
:1014400070B500260C4D0D4C641BA410A64209D1AA
:10145000002600F075F80A4D0A4C641BA410A64241
:1014600005D170BDB300EB5898470136EEE7B300E5
:10147000EB5898470136F2E77C1500087C15000808
:101480007C1500088415000870B504000D001F29A4
:1014900004D9162303600120404270BD436C002B29
:1014A00004D08A009B181A68002A08D1200000F096
:1014B00031F82A000100200000F01AF8EDE70020C2
:1014C000012AEAD0511C03D1162301302360E4E73E
:1014D000002428001C6090472000DEE710B5034B75
:1014E00001001868FFF7D0FF10BDC04604000020BF
:1014F000002370B5064C050008001100236000F0C1
:1015000015F8431C03D12368002B00D02B6070BD5D
:101510007801002010B500F001F810BD582201201C
:10152000014B40421A607047780100205822012088
:10153000014B40421A60704778010020FEE7C04628
:10154000F8B5C046F8BC08BC9E467047F8B5C04622
:08155000F8BC08BC9E46704780
:101558000000000000000000010600080000000074
:101568000000000013140008000000000000000044
:041578001314000840
:08157C00E9000008AD130008AE
:04158400C10000089A
:1015880031140008080000200000000000000000DE
:101598000000000000000000000000000000000043
:1015A8000000000000000000000000000000000033
:1015B8000000000000000000000000000000000023
:1015C8000000000000000000000000000000000013
:1015D8000000000000000000000000000000000003
:0815E8000000000000000000FB
:04000005080013C517
:00000001FF
