:020000040800F2
:1000000000200020AD4C0008FD4C0008FD4C00080D
:1000100000000000000000000000000000000000E0
:10002000000000000000000000000000FD4C00087F
:100030000000000000000000FD4C000891090008CD
:10004000FD4C0008810E0008FD4C0008FD4C000826
:10005000FD4C0008C50F0008191000086D100008BD
:10006000FD4C0008B50E0008D90E0008190F000855
:10007000FD4C0008210F0008450F0008FD4C00084A
:10008000690F0008FD4C0008000000008D0F0008FB
:10009000FD4C0008930F0008990F0008FD4C000864
:1000A000FD4C0008FD4C0008FD4C0008A10F0008A5
:1000B000FD4C000800000000FD4C0008000000009E
:1000C00010B5064C2378002B07D1054B002B02D02E
:1000D000044800E000BF0123237010BD7000002021
:1000E000000000006C500008044B10B5002B03D03A
:1000F0000349044800E000BF10BDC04600000000F6
:10010000740000206C500008002243088B4274D316
:1001100003098B425FD3030A8B4244D3030B8B4208
:1001200028D3030C8B420DD3FF22090212BA030C11
:100130008B4202D31212090265D0030B8B4219D3F2
:1001400000E0090AC30B8B4201D3CB03C01A524112
:10015000830B8B4201D38B03C01A5241430B8B425A
:1001600001D34B03C01A5241030B8B4201D30B0343
:10017000C01A5241C30A8B4201D3CB02C01A52416A
:10018000830A8B4201D38B02C01A5241430A8B422D
:1001900001D34B02C01A5241030A8B4201D30B0216
:1001A000C01A5241CDD2C3098B4201D3CB01C01A30
:1001B000524183098B4201D38B01C01A524143093A
:1001C0008B4201D34B01C01A524103098B4201D328
:1001D0000B01C01A5241C3088B4201D3CB00C01A95
:1001E000524183088B4201D38B00C01A524143080D
:1001F0008B4201D34B00C01A5241411A00D2014632
:10020000524110467047FFE701B5002000F006F8A4
:1002100002BDC0460029F7D076E770477047C04658
:1002200080B582B000AF0200FB1D1A70FB1D1B7869
:100230005BB21F221A40044B012191400A001A6050
:10024000C046BD4602B080BD00E100E080B582B08E
:1002500000AF78600A00FB1C1A70FB1C1B780F2291
:100260001340DAB27B680F210A4012015968F0206E
:1002700081430A435A607B681800BD4602B080BDC6
:1002800080B582B000AF78600A00FB1C1A70FB1CBE
:100290001B7807221340DAB27B6807210A4012025A
:1002A0005968044801400A435A607B681800BD46FB
:1002B00002B080BDFFF8FFFF80B582B000AF78606C
:1002C0000A00FB1C1A70FB1C1B7803221340DAB2D5
:1002D0007B6803210A405968032081430A435A601E
:1002E0007B681800BD4602B080BD000080B582B0BA
:1002F00000AF78600A00FB1C1A70FB1C1B780122FF
:100300001340DAB27B6801210A401204596804489C
:1003100001400A435A607B681800BD4602B080BDA8
:10032000FFFFFEFF80B582B000AF78600A00FB1CC3
:100330001A70FB1C1B780F221340DAB27B680F2166
:100340000A4092045968044801400A435A607B6895
:100350001800BD4602B080BDFFFFC3FF80B582B06C
:1003600000AF78607B681A68802149020A431A60EE
:100370007B681800BD4602B080BD80B582B000AF7A
:1003800078607B681B689B03DB0FDBB20122534064
:10039000DBB2002B00D0F4E77B681800BD4602B04A
:1003A00080BD80B582B000AF78607B681A6880211C
:1003B00049040A431A607B681800BD4602B080BD3C
:1003C00080B582B000AF78607B681B689B01DB0F53
:1003D000DBB201225340DBB2002B00D0F4E77B6894
:1003E0001800BD4602B080BD80B582B000AF786015
:1003F0007B681A6980210A431A617B681800BD4630
:1004000002B080BD80B582B000AF78607B681B69A8
:100410001B06DB0FDBB21800BD4602B080BD80B505
:1004200082B000AF78607B681A6902218A431A6142
:100430007B681A6901210A431A617B681800BD466E
:1004400002B080BD80B582B000AF78607B68DB68A9
:100450009B06DB0FDBB21800BD4602B080BD80B545
:1004600082B000AF78607B68DA6820210A43DA60E6
:100470007B681800BD4602B080BD80B582B000AF79
:1004800078607B68DB68DB07DB0FDBB21800BD46FA
:1004900002B080BD80B582B000AF0200FB1D1A70B3
:1004A000FB1D1B7880229202944663449B02180035
:1004B000BD4602B080BD000080B584B000AF78605A
:1004C0000A4BFB600A4BBB607B681800FFF79AFF82
:1004D000031E05D07B68054A5A607B68044A5A604F
:1004E0007B681800BD4604B080BDC0462301674547
:1004F000AB89EFCD80B582B000AF78600A00FB1CFD
:100500001A707B681A6901218A431A617B681A692B
:1005100002210A431A61FB1C1B781800FFF7BAFF7F
:1005200002007B685A617B681A6940210A431A619C
:100530007B681800BD4602B080BD80B582B000AFB8
:10054000386079603B681800BD4602B080BD80B558
:1005500082B000AF386079603A6813005B019B1A83
:100560009B009B18DB001800BD4602B080BD80B523
:1005700082B000AF7860396001223B689A40130076
:100580001A007B689A61C046BD4602B080BD80B546
:1005900082B000AF786039603B68103301229A4026
:1005A00013001A007B689A61C046BD4602B080BD48
:1005B00080B582B000AF786039607B681B6901212B
:1005C0003A6891400A0013405A1E9341DBB218006A
:1005D000BD4602B080BD80B582B000AF78603960A2
:1005E0003A687B6811001800FFF7E2FF031E06D08F
:1005F0003A687B6811001800FFF7C9FF05E03A6808
:100600007B6811001800FFF7B2FFC046BD4602B07C
:1006100080BD80B582B000AF786039603B6818005B
:10062000BD4602B080BD80B584B000AFF860B9604F
:100630007A60FB68BA681A60FB687A685A60FB687F
:100640001800BD4604B080BD80B582B000AF7860B0
:100650007B681A687B685B6819001000FFF787FFEA
:10066000C046BD4602B080BD80B582B000AF7860A4
:100670007B681A687B685B6819001000FFF787FFCA
:10068000C046BD4602B080BD80B582B000AF786084
:100690007B681A687B685B6819001000FFF788FFA9
:1006A00003001800BD4602B080BD80B582B000AF27
:1006B00078607B681A687B685B6819001000FFF738
:1006C0008AFFC046BD4602B080BD80B582B000AF93
:1006D00078600A00FB1C1A70FB1C1B78002B04D0EE
:1006E0007B681800FFF7B0FF03E07B681800FFF796
:1006F000BBFFFB1C1B781800BD4602B080BD90B547
:1007000085B000AF78600A00FB1C1A700F23FC183C
:100710007B681800FFF7B8FF03002370FB1C1B78F1
:10072000002B03D07B681800FFF7BFFF0F23FA18D8
:10073000FB1C12781B78D31A5A1E9341DBB21800A7
:10074000BD4605B090BD80B582B000AF786039601D
:100750007B683A685A60C046BD4602B080BD80B52D
:1007600082B000AF78607B6800229A60C046BD46C8
:1007700002B080BD80B582B000AF78600A00FB1C7B
:100780001A70FB1C1B7801221340DAB27B6801212E
:100790000A4092001968042081430A431A60C04647
:1007A000BD4602B080BD80B582B000AF78607B6886
:1007B0001A6802210A431A60C046BD4602B080BDD5
:1007C00080B582B000AF78600A00FB1C1A707B68AD
:1007D000FA1C127801210A401968012081430A435A
:1007E0001A60C046BD4602B080BD80B582B000AF81
:1007F000786039607B683A681100180001F0A6F84B
:10080000C046BD4602B080BD80B582B000AF786002
:1008100039607B683A681100180001F0B6F8C046EC
:10082000BD4602B080BD90B587B000AF78607B68F0
:100830007B617B69180001F0F8F80300FB607B69BD
:10084000180001F00FF90300BB600823FA180C230D
:10085000FB181100180001F015F9031E11D00C242B
:100860003B19180001F02DF903003B613B691B683F
:100870001B683A69100098473B19180001F013F9FA
:10088000E3E7C046BD4607B090BD80B582B000AF7B
:1008900078607B681800BD4602B080BD80B582B02C
:1008A00000AF78607B681800BD4602B080BD80B59F
:1008B00082B000AF78607B6800229A607B68180085
:1008C000BD4602B080BD80B582B000AF78607B6865
:1008D0009B68002B05D07B689B6878687968032249
:1008E00098477B681800BD4602B080BD80B582B0D5
:1008F00000AF78607B689B685A425341DBB21800B6
:10090000BD4602B080BD80B582B000AF78607B6824
:100910001800BD4602B080BD80B582B000AF7860DF
:100920007B6800221A607B6800225A607B6818008E
:10093000BD4602B080BD80B582B000AF78607B68F4
:100940001800FFF7E9FF7B681800BD4602B080BDC4
:1009500080B582B000AF78607B681800FFF7EBFFCE
:100960007B6800229A607B680022DA607B68002244
:100970001A617B6801225A6101F0AEF80300180089
:1009800001F0B2F87B681800BD4602B080BD0000DF
:1009900080B500AF034B180000F07AF8C046BD46A2
:1009A00080BDC0468C00002080B582B000AF78606A
:1009B0007B6800221A607B6800225A607B681800FE
:1009C000BD4602B080BD000080B582B000AF786047
:1009D0007B6804331800FFF7E7FF044A7B681A605E
:1009E0007B681800BD4602B080BDC0461C5100089F
:1009F00080B582B000AF78607B681800FFF7E4FF35
:100A0000054A7B681A607B6800221A737B681800AD
:100A1000BD4602B080BDC0461051000880B582B00E
:100A200000AF786039607B681800FFF7E1FF0A4A81
:100A30007B681A607B6800221A617B6800225A6119
:100A40003A687B681100180000F038F87B681800DD
:100A5000BD4602B080BDC0460451000880B582B0DA
:100A600000AF78607B685B695A1C7B685A61C0463E
:100A7000BD4602B080BD80B582B000AF78607B68B3
:100A80001B681800FFF7CFFEC046BD4602B080BD10
:100A900080B582B000AF78607B6808331800FFF73C
:100AA000C2FE7B68103318007B685B697A681900A6
:100AB00001F044F8C046BD4602B080BD80B582B0AA
:100AC00000AF786039607B683A681A617B6818000B
:100AD00000F054F8C046BD4602B080BD80B582B07B
:100AE00000AF78607B6859697B681A69002391427E
:100AF0005B41DBB2002B04D07B6800225A610123EA
:100B000000E000231800BD4602B080BD80B582B071
:100B100000AF78607B6800225A617B68180000F0A3
:100B200015F8C046BD4602B080BD80B582B000AFAA
:100B300078607B6859697B681A69002391425B4140
:100B4000DBB21800BD4602B080BD000080B582B0A7
:100B500000AF78607B681B7B002B08D07B6800228D
:100B60001A737A68044B11001800FFF74DFEC04657
:100B7000BD4602B080BDC0468C00002080B582B06A
:100B800000AF78607B681B7B01225340DBB2002BF7
:100B900008D07B6801221A737A68044B1100180090
:100BA000FFF723FEC046BD4602B080BD8C0000208A
:100BB00080B582B000AF78600A00FB1C1A707B68B9
:100BC00000221A607B68FA1C12781A717B68180080
:100BD000BD4602B080BD000080B582B000AF786035
:100BE000054B1B687A68127952B210009847C046CC
:100BF000BD4602B080BDC0460400002080B584B070
:100C000000AF786039607B681B68FB60FB68002B75
:100C10000BD0FB685B68002B03D0FB685B68FB6054
:100C2000F7E7FB683A685A6002E07B683A681A6046
:100C3000C046BD4604B080BD80B584B000AF7860CA
:100C40007B681B68FB60FB68002B09D0FB681B6896
:100C50001B68FA6810009847FB685B68FB60F2E766
:100C6000C046BD4604B080BD80B582B000AF78609C
:100C70007B682033012252421A607B681800BD460F
:100C800002B080BD80B582B000AF78607B6818008C
:100C9000BD4602B080BD90B583B000AF78603960CA
:100CA0003B68DBB2013B9B0001229A4013001C0011
:100CB0007B6804331800FFF7E5FF03001C60C046A3
:100CC000BD4603B090BD80B582B000AF78607B6850
:100CD0001A8A01218A431A82C046BD4602B080BDED
:100CE00080B582B000AF78607B681F221340180087
:100CF000BD4602B080BD80B582B000AF78607B6831
:100D00001800FFF7EDFF0200012393401800BD46D5
:100D100002B080BD80B582B000AF786039607B687A
:100D20001800BD4602B080BD80B582B000AF7860CB
:100D30007B681B681800BD4602B080BD80B582B0DC
:100D400000AF78607B681800BD4602B080BD80B5FA
:100D500082B000AF786039607B681800FFF7EEFF63
:100D600003001A6801203968884001000A431A60AC
:100D70007B681800BD4602B080BD80B582B000AF70
:100D800078607B681800BD4602B080BD80B582B037
:100D900000AF786039607B6814331800FFF7EDFF0F
:100DA00003001B6801213A6891400A0013405A1E53
:100DB0009341DBB21800BD4602B080BD90B587B04C
:100DC00000AFF86008007A6019000B243B19021C80
:100DD0001A700A23FB180A1C1A7001227B689A40B9
:100DE00013007B613B191B78002B04D00B23FB18ED
:100DF0001B78022B1AD10A23FB181B78002B0AD070
:100E0000FB6808331800FFF7B8FF030019687A6918
:100E10000A431A600AE0FB6808331800FFF7ADFFC9
:100E200003001A687969C9430A401A600B23FB184A
:100E30001B78012B04D00B23FB181B78022B1AD133
:100E40000A23FB181B78002B0AD0FB680C33180010
:100E5000FFF793FF030019687A690A431A600AE0F2
:100E6000FB680C331800FFF788FF03001A687969E4
:100E7000C9430A401A60FB681800BD4607B090BD20
:100E800080B500AF00F080FE030010211800FFF7CE
:100E90007DFF031E03D0064B1800FFF7CDFE00F0C8
:100EA00073FE0300180000F077FEC046BD4680BD0B
:100EB000A400002080B500AF064B1800FFF7BCFE71
:100EC00000F092FE030001211800FFF7E4FEC04687
:100ED000BD4680BDCC00002080B500AF0C4B180093
:100EE000FFF7AAFE00F080FE030002211800FFF7C2
:100EF000D2FE084B1800FFF79FFE00F075FE0300BE
:100F000003211800FFF7C7FEC046BD4680BDC0469E
:100F1000D4000020DC00002080B500AFFEE7000018
:100F200080B500AF064B1800FFF786FE00F06AFEA2
:100F300003001800FFF7C7FEC046BD4680BDC0468F
:100F4000BC00002080B500AF064B1800FFF774FE10
:100F500000F058FE03001800FFF7B5FEC046BD467E
:100F600080BDC046BC00002080B500AF064B180015
:100F7000FFF762FE00F04EFE03001800FFF7A3FE2D
:100F8000C046BD4680BDC046C400002080B500AF4D
:100F9000FEE780B500AFFEE780B500AFFEE70000DA
:100FA00080B500AF064B1800FFF746FE00F03AFE92
:100FB00003001800FFF758FEC046BD4680BDC0467E
:100FC000B400002080B500AF00F0DEFD030000217A
:100FD0001800FFF7DBFE031E03D00D4B1800FFF7D0
:100FE0002BFE00F0D1FD030001211800FFF7CEFE1B
:100FF000031E03D0074B1800FFF71EFE00F0C4FDD0
:101000000300180000F016FEC046BD4680BDC04675
:10101000F4000020FC00002080B500AF00F0B4FD1B
:10102000030002211800FFF7B1FE031E03D00D4B91
:101030001800FFF701FE00F0A7FD030003211800D0
:10104000FFF7A4FE031E03D0074B1800FFF7F4FDC3
:1010500000F09AFD0300180000F02FFEC046BD46C8
:1010600080BDC046040100200C01002080B500AF07
:1010700000F08AFD030004211800FFF787FE031E1D
:1010800003D04E4B1800FFF7D7FD00F07DFD0300A5
:1010900005211800FFF77AFE031E03D0484B180005
:1010A000FFF7CAFD00F070FD030006211800FFF7EE
:1010B0006DFE031E03D0434B1800FFF7BDFD00F08B
:1010C00063FD030007211800FFF760FE031E03D035
:1010D0003D4B1800FFF7B0FD00F056FD030008215E
:1010E0001800FFF753FE031E03D0384B1800FFF71C
:1010F000A3FD00F049FD030009211800FFF746FE9B
:10110000031E03D0324B1800FFF796FD00F03CFDA4
:1011100003000A211800FFF739FE031E03D02D4BF0
:101120001800FFF789FD00F02FFD03000B211800C8
:10113000FFF72CFE031E03D0274B1800FFF77CFDA2
:1011400000F022FD03000C211800FFF71FFE031E14
:1011500003D0224B1800FFF76FFD00F015FD0300D0
:101160000D211800FFF712FE031E03D01C4B1800C0
:10117000FFF762FD00F008FD03000E211800FFF7E5
:1011800005FE031E03D0174B1800FFF755FD00F0B6
:10119000FBFC03000F211800FFF7F8FD031E03D02E
:1011A000114B1800FFF748FD00F0EEFC030018009B
:1011B00000F0C6FDC046BD4680BDC04614010020FB
:1011C0001C010020240100202C01002034010020FB
:1011D0003C010020440100204C010020540100206B
:1011E0005C010020640100206C01002080B582B009
:1011F00000AF78607B685B781B021AB27B681B7853
:101200001BB213431BB29BB21800BD4602B080BD97
:1012100080B584B000AFF860B9607A60FB68BA68E6
:101220001A60FB687A685A60FB681800BD4604B013
:1012300080BD80B582B000AF786039607B683A6865
:101240001A607B681800BD4602B080BD80B582B0D0
:1012500000AF78607B681B681800BD4602B080BD97
:1012600080B582B000AF78607B681B681800BD460F
:1012700002B080BD80B582B000AF78607B681B682B
:101280001800BD4602B080BD80B582B000AF786066
:1012900039607B681A683B681B68D31A5A1E9341F1
:1012A000DBB21800BD4602B080BD80B582B000AF91
:1012B00078607B681B689A1C7B681A607B681800E2
:1012C000BD4602B080BD80B584B000AF78607B6859
:1012D0001A680C23FB1811001800FFF7AAFFFB681F
:1012E0001800BD4604B080BD80B584B000AF786002
:1012F0007B681A687B685B685B00D2180C23FB185C
:1013000011001800FFF795FFFB681800BD4604B0F8
:1013100080BD80B582B000AF78607B681A781021FC
:101320000A431A707B681800BD4602B080BD80B5C4
:1013300082B000AF78600A00FB1C1A70FB1C1B789F
:1013400007221340DAB27B6850011A781F210A4045
:10135000111C021C0A431A707B681800BD4602B0BB
:1013600080BD80B582B000AF78607B681800FFF761
:10137000AAFA7B681800BD4602B080BD80B584B073
:1013800000AFF860B9607A603B60FB68BA681A60C9
:10139000FB687A685A60FB683A689A60FB680C33AD
:1013A000180000F010FDFB681C33FA6811001800EB
:1013B00000F02CF8FB681800BD4604B080BD80B575
:1013C00082B000AF78607B680C33180000F008FD35
:1013D000031E04D07B680C33180000F012FDC046D9
:1013E000BD4602B080BD000080B582B000AF78601D
:1013F000054A7B681A607B6800225A607B68180087
:10140000BD4602B080BDC046F850000880B582B02D
:1014100000AF786039607B681800FFF7E5FF094A84
:101420007B681A607B683A689A603B689B687A6858
:1014300011001800FFF7E2FB7B681800BD4602B000
:1014400080BDC046D050000880B582B000AF786043
:101450007B689B681800FFF7B2FFC046BD4602B02C
:1014600080BD000080B500AF014B1800BD4680BDB7
:10147000A400002080B582B000AF786039607B683E
:101480000C333A681100180000F0D0FCC046BD468D
:1014900002B080BD80B500AF00F0E3FCC046BD46A1
:1014A00080BD80B582B000AF786039603A687B68F3
:1014B0001100180000F005FD7868BD4602B080BD3F
:1014C00080B500AF0F4B1B68012213400AD100F01A
:1014D00013FD01000C4B0C221800FFF7A4F8094B78
:1014E00001221A6000F048FB0300180000F00CFD18
:1014F000054B1B68180000F015FD034B1800BD4696
:1015000080BDC0467C0100207401002080B500AF82
:101510000F4B1B68012213400AD100F0EDFC0100C3
:101520000C4B0D221800FFF77EF8094B01221A60C0
:1015300000F022FB0300180000F0E6FC054B1B68DE
:10154000180000F001FD034B1800BD4680BDC046E9
:10155000880100208001002080B500AF0F4B1B6880
:10156000012213400AD100F001FD01000C4B0D22B5
:101570001800FFF758F8094B01221A6000F0FCFA36
:101580000300180000F0FAFC054B1B68180000F07F
:1015900003FD034B1800BD4680BDC04694010020EA
:1015A0008C01002080B582B000AF78607B680C337E
:1015B0001800FFF7D6FE7B681800BD4602B080BD5C
:1015C000B0B582B000AF224B1B680122134016D188
:1015D00000F016FD040000F0D7FA0500FFF742FF07
:1015E00003001C482A002100FFF7C8FE184B012207
:1015F0001A60194A1949174B180003F0A7FB154B3D
:101600005B6810211800FFF7A2FB124B58680123FA
:1016100010220021FFF7D2FB0E4B9B681800FFF74A
:10162000DBFA00F0A9FA03007B607B68180000F089
:10163000EFFC084B1B6807211800FFF778FE03003A
:101640001800FFF766FE034B1800BD4602B0B0BDA0
:10165000C00100209801002000000020A51500080E
:1016600090B583B000AF78607B685A687B681C686F
:10167000100000F0DBFC03006380C046BD4603B0F1
:1016800090BD80B582B000AF78607B681800FFF72E
:101690001AF97B681800BD4602B080BD90B583B0D2
:1016A00000AF78607B681B68180000F081FD7B68E4
:1016B0005C6805200021FEF74AFF030019002000A6
:1016C000FFF7FCF97B689B6801211800FEF7FDFF1E
:1016D0007B68DB6801211800FEF7F7FF7B681B6958
:1016E00001221A70C046BD4603B090BDF0B5DBB014
:1016F00002AF924BAE225200BA181360FA235B017C
:10170000AC225200BA1813608C256D007B190022A0
:101710001A807B1900225A80D423FB187A191100F1
:101720001800FFF7BEFEFFF7CBFE0300D022B9186A
:101730000B60FFF7EBFE0300CC2178180360FFF786
:101740000BFF0300C820381803607A19AC26BB19B8
:101750001100180000F032FCFFF732FF0300A82050
:101760003C18236038180468962149007B187A19C0
:101770001A607B1835007A195A607B188E2676001D
:10178000B81919685A6800F065FCBB1919002000E7
:10179000FFF770FEBB191800FFF7E3FD684A9024BD
:1017A0003B191A603B1900225A603B1900229A60CB
:1017B0003B1900221A733B1900221A613B190022BF
:1017C0005A618F26BB1900221A7018203B18180086
:1017D00000F09EFCA22149007B187A191A607B1840
:1017E0003A195A60D022BA1812687B189A60CC2332
:1017F000FB181A687B18DA607B18BA191A617B1813
:101800009A24640038196A4611001A000C3260CA22
:1018100060C119685A689B6800F0E6FC3A19182004
:101820003B181100180000F015FD3B191800FFF7D8
:1018300098FD01200021FEF78AFE02003B00110006
:101840001800FFF7EBF88F23FB181B78002B1DD037
:101850009023FB181800FFF768F9031E16D0902399
:10186000FB181800FFF752F98F23FB1800221A709B
:10187000D023FB181B6800211800FEF726FFCC239D
:10188000FB181B6800211800FEF71FFF3B00180023
:10189000FFF724F903001A00C823FB181B68110086
:1018A0001800FEF72CFF8F23FB181B7801225340F2
:1018B000DBB2002B40D08C235B00FB181B88214A35
:1018C000934215D98C235B00FB181B881E4A934258
:1018D0000ED8CC23FB181B6801211800FEF7F5FE7B
:1018E000D023FB181B6800211800FEF7EEFE23E052
:1018F0008C235B00FB181B88134A93420ED9CC2320
:10190000FB181B6800211800FEF7DFFED023FB1830
:101910001B6801211800FEF7D8FE0DE0CC23FB1850
:101920001B6800211800FEF7D0FED023FB181B68AF
:1019300000211800FEF7C9FE30BF84E74C1D0000EF
:10194000045100084B1D00003F1F000080B582B00D
:1019500000AF786039607B685A683B685A607B6882
:101960005B68002B03D07B685B683A689A607B6891
:101970003A685A607B681B68002B02D17B683A6822
:101980001A60C046BD4602B080BD80B582B000AFCF
:10199000786039603B685B68002B0ED03B689B68C1
:1019A000002B0AD03B685B683A6892689A603B6893
:1019B0009B683A6852685A602DE03B689B68002B30
:1019C0000FD03B689A687B681A607B681B680022AE
:1019D0005A607B681B68002B1DD17B6800225A600F
:1019E00019E03B685B68002B0FD03B685A687B6846
:1019F0005A607B685B6800229A607B685B68002B9A
:101A000009D17B6800221A6005E07B6800221A6019
:101A10007B6800225A603B6800225A603B680022C3
:101A20009A60C046BD4602B080BD80B584B000AFAC
:101A300078607B681A680C23FB181100180000F00E
:101A400019FCFB681800BD4604B080BD80B582B0AB
:101A500000AF78607B6800221A607B681800BD4682
:101A600002B080BD80B584B000AF78600023FB6019
:101A70000C23FB181800FFF7E9FFFB681800BD46B0
:101A800004B080BD80B582B000AF786039607B68FB
:101A90001A683B681B68D31A5A1E9341DBB21800C0
:101AA000BD4602B080BD80B582B000AF78607B6873
:101AB0001B689A687B681A607B681800BD4602B094
:101AC00080BD80B582B000AF78607B681B6818006D
:101AD000BD4602B080BD000080B500AF014B1800CC
:101AE000BD4680BD10E000E080B584B000AF7860F6
:101AF000114BFB607B6800211800FEF761FE0E4A67
:101B00007B6811001800FEF71EFE7B681800FEF7C8
:101B100026FE7B6801211800FEF72CFE7B6818006A
:101B2000FEF741FE7B6801211800FEF749FEC04622
:101B3000BD4604B080BDC0467FBB000080B584B008
:101B400000AFF860B9607A60FB681A68511CFB68E6
:101B50001960B9681000FEF75DFB0B005A42534153
:101B6000DBB2002B03D03B1D1800FEF784FFC046FC
:101B7000BD4604B080BD000080B500AF014B180029
:101B8000BD4680BD0010024080B500AF014B18007B
:101B9000BD4680BD00040140B0B588B000AF78609C
:101BA0000023FB6010243B190C2579191022180022
:101BB00000F06DFB3B190121180000F081FB3B197F
:101BC000180000F074FB7B19180000F0A5FB04005E
:101BD0007B6814331800FFF7D0F803001C607B68A3
:101BE0001800BD4608B0B0BD80B500AF044B190069
:101BF0000820FEF70EFD03001800BD4680BDC0465C
:101C00000000024080B500AF014B1800BD4680BD0A
:101C1000002C014080B500AF014B1800BD4680BDCF
:101C20000004004080B500AF014B1800BD4680BDE8
:101C30000038014090B589B000AF78600023BB60E8
:101C40000C243B190822B9180022180000F01FFBD1
:101C50003B190121180000F033FB3B19180000F07C
:101C600026FB0123FB61FB69012B14DCFA691424B8
:101C70003B1908217918180000F009FB3B190121D4
:101C8000180000F01DFB3B19180000F010FBFB6969
:101C90000133FB61E7E70823FB18180000F03CFB69
:101CA00004007B6814331800FFF767F803001C601A
:101CB0007B681800BD4609B090BD90B589B000AFF3
:101CC00078600023BB600C243B190822B91802225B
:101CD000180000F0DCFA3B190121180000F0F0FABE
:101CE0003B19180000F0E3FA0323FB61FB69032BA7
:101CF00014DCFA6914243B1908217918180000F043
:101D0000C6FA3B190121180000F0DAFA3B19180055
:101D100000F0CDFAFB690133FB61E7E70823FB180C
:101D2000180000F0F9FA04007B6814331800FFF77C
:101D300024F803001C607B681800BD4609B090BD04
:101D400090B589B000AF78600023BB600C243B19CC
:101D50000822B9180422180000F099FA3B19012151
:101D6000180000F0ADFA3B19180000F0A0FA0523A6
:101D7000FB61FB690F2B14DCFA6914243B19082161
:101D80007918180000F083FA3B190121180000F0BF
:101D900097FA3B19180000F08AFAFB690133FB61DE
:101DA000E7E70823FB18180000F0B6FA04007B6888
:101DB00014331800FEF7E1FF03001C607B68180075
:101DC000BD4609B090BD80B582B000AF78607B6839
:101DD0001800FEF76CFD7B681800BD4602B080BDA0
:101DE00080B582B000AF78607B681800FEF77EFD9A
:101DF00003001A0001235340DBB21800BD4602B0B5
:101E000080BD80B582B000AF78607B681800FEF7B7
:101E10006DFD031E01D002F0A4FF7B68DB687A68C9
:101E200010009847C046BD4602B080BD90B587B04F
:101E300000AF786039603A6808243B191100180037
:101E400000F077FA7A683B191100180000F093FA55
:101E50003B191800FFF785FA7B681800BD4607B0EC
:101E600090BD80B500AFFFF787FE03001800FEF7B6
:101E700075FA03001800FEF780FA0300002118002D
:101E8000FEF7E4F9030000211800FEF7F9F903005A
:101E900002211800FEF710FA030004211800FEF7D3
:101EA00041FA030001211800FEF720FA0300180090
:101EB000FEF777FA03001800FEF782FAC046BD4627
:101EC00080BD80B582B000AF786039607B68180053
:101ED00000F0AAFA7B683A685A613A687B68110098
:101EE000180000F00BFB7B681800FEF747FE7B68CC
:101EF0001800BD4602B080BD80B500AF014B180090
:101F0000BD4680BD0004004880B582B000AF786057
:101F10007B685A698021C9020A435A61C046BD469E
:101F200002B080BD80B582B000AF78607B680121CF
:101F3000180000F001FB7B680021180000F018FB7E
:101F4000C046BD4602B080BD80B582B000AF7860AB
:101F50007B680121180000F027FB7B680021180036
:101F600000F03EFBC046BD4602B080BD80B500AF6C
:101F7000014B1800BD4680BD0008004880B582B006
:101F800000AF78607B685A69802109030A435A616F
:101F9000C046BD4602B080BD80B582B000AF78605B
:101FA0007B680121180000F0FFFA7B68002118000F
:101FB00000F016FBC046BD4602B080BD80B582B0C1
:101FC00000AF786039607B681800FEF711FD0B4A9E
:101FD0007B681A607B683A681A617B6800225A61E4
:101FE0007B681800FEF7CAFD3B685A887B681A8335
:101FF0007B681800BD4602B080BDC046B8500008DE
:1020000080B500AF014B1800BD4680BD0070004098
:1020100080B582B000AF78607B68DA6980214905BD
:102020000A43DA61C046BD4602B080BD80B582B0C9
:1020300000AF78607B681B8B1800BD4602B080BD86
:1020400080B582B000AF78607B681800BD4602B0F2
:1020500080BD000090B585B000AFF8603B1D1960F1
:102060005A60FB681800FEF722FC3B1D180000F0C8
:10207000D3FA031E0FD0FC683B1D1800FFF7E0FFEA
:1020800003001900200000F0D0FAFB68044ADA606F
:10209000FB68044A9A60FB681800BD4605B090BD15
:1020A000512600087126000880B582B000AF786024
:1020B000034A7B681A607B681800BD4602B080BD89
:1020C000DC50000880B500AF0F4B1B6801221340A5
:1020D0000AD1FFF74BFF01000C4B0E221800FEF750
:1020E000A2FA094B01221A60FFF746FD030018000F
:1020F000FFF744FF054B1B68180000F0F3FA034B91
:102100001800BD4680BDC046CC010020C40100209F
:1021100080B582B000AF78607B681800FFF7C4FF1D
:102120007B6804331800FEF763FC1F4A7B681A6063
:102130001E4A7B685A607B6800225A747B6814339D
:102140001800FFF740FE7B6824331800FFF73BFEC2
:102150007B6834331800FFF736FE7B684433180081
:10216000FFF731FE7B685433180000F0AEFAFFF73A
:10217000A9FF02007B685A667B6800229A667B682A
:102180000122DA667B687022002199547B687122F3
:10219000002199547B6804331800FEF7EFFC7B683C
:1021A0001800BD4602B080BD8C500008AC5000083D
:1021B00080B582B000AF78607B6800221A837B68AC
:1021C0001B6900225A807B681B6900221A80C04666
:1021D000BD4602B080BD80B582B000AF78607B683C
:1021E0001800BD4602B080BD84B090B583B000AF8A
:1021F000786004201824A446BC4460440160426016
:1022000083607B681800FEF752FB1C23FB18180044
:1022100000F07AFA031E10D07C681C23FB1818000B
:10222000FFF7D9FF03001900200000F076FA7B6861
:10223000064ADA607B68064A9A607B681800BD46E9
:1022400003B090BC08BC04B01847C0464127000842
:102250006127000880B582B000AF786039607B6884
:1022600044333A6811001800FFF7E0FDC046BD4650
:1022700002B080BD80B582B000AF786039607B6805
:102280003A681A607B681800BD4602B080BD80B510
:1022900084B000AFF860B9607A607A68B968FB68AA
:1022A000180000F08AFAF868BD4604B080BD80B519
:1022B00082B000AF78607B681800BD4602B080BD78
:1022C00080B582B000AF78600A00FB1C1A70FB1C5E
:1022D0001B78002B0DD07B685B681800FEF70BFDA8
:1022E00001007B681B681A687B681B680A431A60D8
:1022F0000DE07B685B681800FEF7FDFC0300DA4325
:102300007B681B6819687B681B680A401A607B68D9
:102310001800BD4602B080BD80B582B000AF7860C5
:102320007B681800FEF700FD03001800BD4602B0F0
:1023300080BD80B582B000AF786039607B681800DE
:10234000FEF7B5FA3B681800FFF74AFD031E0DD0F3
:102350003B689B6878683968022298473B68DA686E
:102360007B68DA603B689A687B689A607B681800D3
:10237000BD4602B080BD80B582B000AF78603960E4
:102380007B683A681100180000F03BFA7B6808335C
:102390001A003B6808331900100000F05DFA7B68F2
:1023A0000C331A003B680C331900100000F07EFA61
:1023B000C046BD4602B080BD80B500AF8023DB00C3
:1023C0001800BD4680BD000080B500AF014B18006D
:1023D000BD4680BD0068000880B500AF8023DB00EB
:1023E0001800BD4680BD000080B500AF014B18004D
:1023F000BD4680BD0064000880B582B000AF786043
:102400007B6800221A607B681800BD4602B080BD60
:1024100080B582B000AF78607B6800221A707B685C
:102420001800BD4602B080BDB0B582B000AF786084
:102430007B681800FEF7DCFA2F4A7B681A6000F010
:1024400067FA02007B681A617B6800225A617B6828
:102450000022DA617B681C331800FFF7CDFF7B6830
:1024600000221A847B6800225A627B6828331C0091
:10247000FFF7AAFF03001D00FFF79EFF03005B08A4
:102480001A0029002000FEF7C3FE7B6830331C00D1
:10249000FFF7AAFF03001D00FFF79EFF03005B0884
:1024A0001A0029002000FEF7B3FE7B6828330021C4
:1024B000180000F01CFA03007C681800FEF703FF08
:1024C0000300A3637B683C22002199547B683D2272
:1024D000002199547B683E22002199547B68402258
:1024E000002199547B6840331800FFF791FF7B6807
:1024F0001800BD4602B0B0BDC450000880B582B01F
:1025000000AF786039607B683A685A617B68180070
:1025100000F033FA03001A0001235340DBB2002B12
:1025200005D03B6800221A803B6800225A80C046D2
:10253000BD4602B080BD000080B582B000AF7860BB
:102540000A00FB1C1A70FB1C1B7803221340DAB232
:102550007B6803210A4012061968044801400A43B7
:102560001A607B681800BD4602B080BDFFFFFFFC0B
:1025700080B582B000AF78600A00FB1C1A70FB1CAB
:102580001B7803221340DAB27B6803210A4012064B
:10259000D968044801400A43DA607B681800BD46E8
:1025A00002B080BDFFFFFFFC80B582B000AF786055
:1025B0000A00FB1C1A70FB1C1B7803221340DAB2C2
:1025C0007B6803210A4092061968044801400A43C7
:1025D0001A607B681800BD4602B080BDFFFFFFF3A4
:1025E00080B582B000AF78600A00FB1C1A70FB1C3B
:1025F0001B7803221340DAB27B6803210A4092065B
:10260000D968044801400A43DA607B681800BD4677
:1026100002B080BDFFFFFFF380B582B000AF7860ED
:1026200001231800BD4602B080BD90B585B000AF53
:10263000786039603B681800FFF702FD01007B6895
:10264000221C180000F038FBC046BD4605B090BD06
:1026500080B582B000AF78607B68180000F049FB5D
:1026600003001800FEF7FCFFC046BD4602B080BD67
:10267000B0B586B000AFF860B960FB1D1A70FB1DE5
:102680001B78022B0FD0032B14D0012B18D1BB6861
:10269000180000F02EFB0400FB68180000F03CFB63
:1026A00003001C600CE0B968FB682A1C180000F0ED
:1026B00040FB05E0FB68211C180000F057FBC046FA
:1026C00000231800BD4606B0B0BD80B582B000AF93
:1026D00078607B681800FEF7EAF87B681800BD4652
:1026E00002B080BD80B582B000AF78607B68002109
:1026F000180000F049FB7B680021180000F060FB27
:10270000C046BD4602B080BD80B582B000AF7860E3
:1027100001231800BD4602B080BD90B585B000AF62
:10272000786039603B681800FFF755FD01007B6851
:10273000221C180000F060FBC046BD4605B090BDED
:1027400080B582B000AF78607B68180000F075FB40
:1027500003001800FEF7A2FFC046BD4602B080BDD0
:10276000B0B586B000AFF860B960FB1D1A70FB1DF4
:102770001B78022B0FD0032B14D0012B18D1BB6870
:10278000180000F05AFB0400FB68180000F065FB1D
:1027900003001C600CE0B968FB682A1C180000F0FC
:1027A00069FB05E0FB68211C180000F085FBC046B2
:1027B00000231800BD4606B0B0BD80B584B000AFA0
:1027C000F860B9607A60BB687A6811001800FEF79B
:1027D000A1FA0200FB681A607B681800FEF780FA15
:1027E0000200FB685A60FB681800BD4604B080BD5B
:1027F00080B582B000AF78607B681800BD4602B03B
:1028000080BD90B585B000AF786039607B681800F6
:10281000FFF7EEFF020008243B1903CA03C33B681D
:102820001800FFF7E5FF02007B6803CA03C33B19EA
:102830001800FFF7DDFF02003B6803CA03C3C04670
:10284000BD4605B090BD80B582B000AF78607B68B2
:102850001800BD4602B080BD80B584B000AF78607E
:1028600039607B681800FFF7EEFF03001B68FB6010
:102870003B681800FFF7E7FF03001A687B681A60DF
:102880000C23FB181800FFF7DEFF03001A683B68F3
:102890001A60C046BD4604B080BD80B582B000AFAE
:1028A00078607B681800BD4602B080BD80B584B0FA
:1028B00000AF786039607B681800FFF7EEFF030017
:1028C0001B68FB603B681800FFF7E7FF03001A680E
:1028D0007B681A600C23FB181800FFF7DEFF03006B
:1028E0001A683B681A60C046BD4604B080BD80B51A
:1028F00082B000AF786039607B683A6811001800D8
:1029000000F0EEFA03001800BD4602B080BD0000E2
:1029100080B500AF014B1800BD4680BD00200240CD
:1029200080B582B000AF78607B681800BD4602B009
:1029300080BD80B582B000AF78607B68043318003A
:10294000BD4602B080BDB0B582B000AF78607B6894
:102950001B681800FFF7E4FF04007B681B68180081
:10296000FFF7E7FF03002A1C1900200000F0F1FA2E
:1029700003001800BD4602B0B0BDF0B58FB000AF87
:1029800078607B681833180000F0B7FA04007B68A1
:102990001833180000F0BAFA0100FF237B611423FA
:1029A000FB181A00200000F0BBFA10217B1800224F
:1029B0001A607B18FB607B681B691800FDF77CFDC3
:1029C00000237B637B682833180000F0D9FA0200EB
:1029D0007B6B93429B415B42DBB2002B00D181E0D9
:1029E0007B6828337A6B11001800FFF780FF030023
:1029F0001800FEF768FC05007B6828337A6B11002D
:102A00001800FFF774FF03001800FEF76DFC0100CB
:102A100018203B187A681A603B181022BA185A60BE
:102A20007C683B181A685B68280000F0B2FA030063
:102A3000A3637B6838331800FEF708FC04007B684A
:102A400028337A6B11001800FFF751FF03001800BC
:102A5000FEF739FC03003B622023FB181800FEF749
:102A6000F5FB0300E31A5A425341DBB2002B07D0B7
:102A70007B681C337A6B1100180000F0A5FA2DE07A
:102A80007B6838331C007B6828337A6B1100180090
:102A9000FFF72DFF03001800FEF726FC03007B6202
:102AA0002423FB1819002000FEF7EEFB031E0ED0B6
:102AB0007B681C337A6B1100180000F085FA0C2338
:102AC000FB181800FFF73FFF031E07D00AE07A68E3
:102AD00020217B6BD3185B1801221A707B6B0133AA
:102AE0007B636FE77B6838331800FEF7AFFB0400A9
:102AF0007B6828331D007B681C33180000F072FAD5
:102B0000030019002800FFF7F2FE03001800FEF78B
:102B1000EBFB0300BB622823FB181800FEF796FBB3
:102B20000300E31A5A425341DBB2002B25D07B68E5
:102B300020331C007B681C33180000F053FA03009C
:102B4000E31801221A707B681C330021180000F082
:102B50003BFA7B6828331C007B681C33180000F0AC
:102B600041FA030019002000FFF7C1FE03007C6852
:102B70001800FEF7A8FB0300A3632F257C190C2384
:102B8000FB181800FFF7DFFE030023707B191B788A
:102B9000002B0CD07B6858697B681833042219001D
:102BA00002F034F97B683E22002199540FE07B68E3
:102BB00020331C007B681C33180000F013FA03005C
:102BC000E31801221A707B683E22052199540023E4
:102BD0003B637B682833180000F0D2F902003B6B9E
:102BE00093429B415B42DBB2002B42D07A682021AA
:102BF0003B6BD3185B181B7801225340DBB2002BD0
:102C00000AD07B681C33180000F0ECF902003B6B23
:102C1000934201D0012300E00023002B25D07B68E4
:102C200028333A6B11001800FFF761FE030018000B
:102C3000FEF749FB04007B6828333A6B110018004B
:102C4000FFF755FE03001800FEF74EFB0300FA786D
:102C50001900200000F0D0F9030018007A68202144
:102C60003B6BD3185B18021C1A703B6B01333B6340
:102C7000AFE77B682033180000F0D4F904007B68CC
:102C80002033180000F0D7F90300321C190020008F
:102C900000F0DBF9031E03D07B683D220321995429
:102CA0007B681B691800FDF79FFB2F23FB181B781F
:102CB0001800BD460FB0F0BD90B585B000AFF8600C
:102CC000B9603B1D1A70BB681800FFF7B9F9040022
:102CD000FB681800FDF7D9FD030019000820FDF777
:102CE00098FC0300220003CA03C3C046BD4605B0DA
:102CF00090BD80B584B000AF78607B68180000F0AC
:102D0000BAF90300180000F0C3F90300FB60FB6888
:102D10001800BD4604B080BD80B582B000AF7860B9
:102D20007B681800FDF7B1FD03001800BD4602B036
:102D300080BD90B585B000AFF860B9603B1D1A70DA
:102D4000BB68180000F097F90400FB681800FDF755
:102D50009CFD030019000820FDF75BFC0300220026
:102D600003CA03C3C046BD4605B090BD80B582B05E
:102D700000AF78603B0019707B68180000F091F993
:102D8000C046BD4602B080BD80B582B000AF78605D
:102D90000A00FB1C1A70FB1C1B7803221340DAB2DA
:102DA0007B6803210A4012071968044801400A435E
:102DB0001A607B681800BD4602B080BDFFFFFFCFE0
:102DC00080B582B000AF78600A00FB1C1A70FB1C53
:102DD0001B7803221340DAB27B6803210A401207F2
:102DE000D968044801400A43DA607B681800BD4690
:102DF00002B080BDFFFFFFCFB0B584B000AFF86078
:102E0000B9603B1D1A70BB681800FFF7E4F90500B4
:102E1000142001F074FF03001C0023002A0023CAC1
:102E200023C303CA03C3FB68180000F016F80300AD
:102E30001C60C046BD4604B0B0BD80B584B000AFD4
:102E400078607B68180000F039F903001B68FB60AC
:102E5000FB681800BD4604B080BD80B582B000AFED
:102E600078607B681800FDF710FD03001800BD4670
:102E700002B080BDB0B584B000AFF860B9603B1D52
:102E80001A70BB68180000F019F903001D681420BF
:102E900001F035FF03001C0023002A0023CA23C3CE
:102EA00003CA03C3FB681800FFF7D7FF03001C60C9
:102EB000C046BD4604B0B0BD80B582B000AF7860FA
:102EC0003B0019707B681800FFF7C7FF03001B6801
:102ED0001421180001F041FFC046BD4602B080BD7C
:102EE00080B582B000AF786039603B68DB007A68FB
:102EF000D3181800BD4602B080BD80B582B000AFC7
:102F000078607B681800BD4602B080BD80B582B095
:102F100000AF78607B6804331800BD4602B080BD06
:102F200090B585B000AFF860B9607A60FB681800B2
:102F300000F0D1F80400BB68180000F0CCF80100E4
:102F40007B681A00200000F0CFF8C046BD4605B0EF
:102F500090BD90B585B000AFF860B9603B1D1A70A8
:102F6000B968FB68221C180000F0D7F80200BB68A3
:102F70009B1A5A425341DBB21800BD4605B090BDC2
:102F800080B582B000AF786002231800BD4602B061
:102F900080BD90B587B000AFF860B96039000A60B5
:102FA0004B60102438193B0019685A6800F0D3F8B8
:102FB0003B19B968F8681A685B6800F0E9F8030023
:102FC0001800BD4607B090BD80B582B000AF7860F4
:102FD00039607B683A681A607B681B681800BD46D8
:102FE00002B080BD80B582B000AF78607B681B689E
:102FF0001800BD4602B080BD90B585B000AFF86046
:10300000B9603B1D1A70B968FB68221C180000F0FB
:10301000DAF803001A0001235340DBB21800BD4662
:1030200005B090BD80B582B000AF78607B681800B5
:10303000BD4602B080BD80B582B000AF78607B68CD
:1030400002331800BD4602B080BD90B585B000AF18
:10305000F860B9603B1D1A70B968FB68221C180043
:1030600000F0D4F803001A0001235340DBB218002B
:10307000BD4605B090BD80B582B000AF78607B687A
:103080001800FDF70BFC03001800BD4602B080BD20
:1030900080B582B000AF78607B681800BD4602B092
:1030A00080BD80B582B000AF78607B681800FDF706
:1030B000ECFB03001800BD4602B080BD80B582B0B5
:1030C00000AF78607B681800FDF7E8FB030018008C
:1030D000BD4602B080BD80B582B000AF78607B682D
:1030E0001800BD4602B080BD80B586B000AFF86064
:1030F000B9607A607B681B687B61FA68BB689A423A
:1031000007D07B69DAB2FB681A70FB680133FB6099
:10311000F3E7C046BD4606B080BDB0B584B000AF91
:10312000F860B9603B1D1A70281C00F08FF8B96870
:10313000FB68221C180000F0A4F803001800BD462C
:1031400004B0B0BD80B582B000AF78607B68180075
:10315000BD4602B080BD80B584B000AFF8603B1DB5
:1031600019605A603B1D1800FFF7ECFF0300F86878
:1031700019685A6800F0A2F8F868BD4604B080BD2E
:1031800080B582B000AF7860181CBD4602B080BD2B
:1031900090B587B002AFF860B96039000A604B6043
:1031A0000C23FB181800FFF7EBFF3B00B968F86829
:1031B0006A4614701A685B6800F094F803001800FF
:1031C000BD4605B090BDB0B586B000AFF860B9603F
:1031D0003B1D1A700823FB181800FEF737F804008F
:1031E000B968FB682A1C180000F0ABF803007B618B
:1031F0001423FB181800FEF729F80300E31A5A42BB
:103200005341DBB21800BD4606B0B0BD90B585B0E5
:1032100000AFF860B9603B1D1A70B968FB68221CEA
:10322000180000F0A3F80200BB689B1A5A425341F1
:10323000DBB21800BD4605B090BD80B582B000AFCE
:1032400078607B681800BD4602B080BDB0B584B020
:1032500000AF3B1D18703B1D1800FFF7EEFF0C235D
:10326000FB18291C180000F096F8201CBD4604B07D
:10327000B0BD80B582B000AF7860181CBD4602B00A
:1032800080BDF0B585B000AFF860B9603B1D1A7025
:10329000FC683B1D1B78181C00F08CF80C23FB18F5
:1032A0001800FFF7E6FFB968331C2A1C200000F065
:1032B00094F803001800BD4605B0F0BD80B584B099
:1032C00000AFF8603B1D19605A603B1D1800FFF706
:1032D00039FF0200FB6803CA03C3FB681800BD4640
:1032E00004B080BD80B584B000AFF860B96039002B
:1032F0000A604B600823FA180C23FB181100180011
:10330000FDF7C2FF031E0ED0FA683B001100180043
:1033100000F00CF903001A0001235340DBB2002B2C
:1033200001D0012300E00023002B05D00C23FB1863
:103330001800FDF7BAFFDDE7FB681800BD4604B0D2
:1033400080BDB0B584B000AFF860B9603B1D1A70A5
:10335000281C00F008F9B968FB68221C180000F06E
:1033600015F903001800BD4604B0B0BDB0B584B077
:1033700000AFF860B9603B1D1A70281C00F027F9F7
:10338000B968FB68221C180000F034F9030018002B
:10339000BD4604B0B0BD80B582B000AF78603B00E0
:1033A00019703B001800FFF748FF7B681800BD4606
:1033B00002B080BDB0B584B000AF3B1D18703B1D9E
:1033C0001800FFF73AFF0C23FB18291C180000F027
:1033D0002AF9201CBD4604B0B0BD80B586B000AF50
:1033E000F860B960391D0A703A001370BA68FB685A
:1033F000D31A9B107B617B69002B37DDFA683B1D7C
:103400001100180000F029F9031E01D0FB685FE0ED
:10341000FB680133FB60FA683B1D1100180000F0E7
:103420001CF9031E01D0FB6852E0FB680133FB600E
:10343000FA683B1D1100180000F00FF9031E01D0BF
:10344000FB6845E0FB680133FB60FA683B1D110037
:10345000180000F002F9031E01D0FB6838E0FB6899
:103460000133FB607B69013B7B61C4E7BA68FB68A1
:10347000D31A022B11D0032B02D0012B1AD026E035
:10348000FA683B1D1100180000F0E7F8031E01D098
:10349000FB681DE0FB680133FB60FA683B1D11000F
:1034A000180000F0DAF8031E01D0FB6810E0FB689A
:1034B0000133FB60FA683B1D1100180000F0CDF8E5
:1034C000031E01D0FB6803E0FB680133FB60BB68AF
:1034D0001800BD4606B080BD80B584B000AF7860EE
:1034E00039603B68FB60FB681B78032B10D87B6856
:1034F0001B68FA6812781100FA6852785B181A761D
:103500007B685B68FA68127801219954002307E010
:103510003B681B88044A944663445A425341DBB2D9
:103520001800BD4604B080BD0100FFFF90B583B018
:1035300000AF786039607C683B001800FDF790FEB2
:10354000030019002000FFF7C7FF03001800BD4665
:1035500003B090BD80B582B000AF78607B68180082
:10356000BD4602B080BDB0B584B000AF3B1D187041
:103570003B1D1800FFF7EEFF0C23FB18291C180059
:1035800000F07FF8201CBD4604B0B0BD90B585B0FA
:1035900000AFF860B9603B1D1A700C23FB181800CF
:1035A000FFF7EEFD3B1D1A78B968F868231C00F0A0
:1035B00077F803001800BD4605B090BD80B582B015
:1035C00000AF78607B681800BD4602B080BDB0B522
:1035D00084B000AF3B1D18703B1D1800FFF7EEFFD5
:1035E0000C23FB18291C180000F08AF8201CBD468B
:1035F00004B0B0BDB0B584B000AFF860B9603B1D99
:103600001A70FC680C23FB181800FFF732FE3B1DF4
:103610001A78B9682B1C200000F081F8030018000C
:10362000BD4604B0B0BD80B582B000AF78603B004D
:1036300019703B001800FFF700FE7B681800BD46BC
:1036400002B080BD80B582B000AF786039603B6861
:103650001B781800BD4602B080BD80B582B000AFB7
:10366000786039607B683A6811001800FFF7EAFF5C
:1036700003001A0001235340DBB21800BD4602B01C
:1036800080BD80B582B000AF78603B0019703B0010
:103690001800FFF75FFF7B681800BD4602B080BDD1
:1036A00080B584B000AFF860B960391D0A703A0087
:1036B00013700823FA180C23FB1811001800FDF7EB
:1036C000E3FD031E0ED0FA683B1D1100180000F048
:1036D000B9F803001A0001235340DBB2002B01D0DC
:1036E000012300E00023002B05D00C23FB18180059
:1036F000FDF7DBFDDDE7FB681800BD4604B080BDCB
:1037000080B582B000AF78603B0019703B001800B4
:10371000FFF754FF7B681800BD4602B080BD80B53E
:1037200086B000AFF860B960391D0A703A001370B6
:10373000BA68FB68D31A9B107B617B69002B37DD6D
:10374000FA683B1D1100180000F09BF8031E01D021
:10375000FB685FE0FB680133FB60FA683B1D11000A
:10376000180000F08EF8031E01D0FB6852E0FB68E1
:103770000133FB60FA683B1D1100180000F081F86E
:10378000031E01D0FB6845E0FB680133FB60FA686B
:103790003B1D1100180000F074F8031E01D0FB68F7
:1037A00038E0FB680133FB607B69013B7B61C4E768
:1037B000BA68FB68D31A022B11D0032B02D0012B5D
:1037C0001AD026E0FA683B1D1100180000F059F8E5
:1037D000031E01D0FB681DE0FB680133FB60FA6843
:1037E0003B1D1100180000F04CF8031E01D0FB68CF
:1037F00010E0FB680133FB60FA683B1D1100180004
:1038000000F03FF8031E01D0FB6803E0FB680133C2
:10381000FB60BB681800BD4606B080BD80B582B0B5
:1038200000AF786039603B681B88054A9446634462
:103830005A1E9341DBB21800BD4602B080BDC0469F
:103840000100FFFF90B583B000AF786039607C68FD
:103850003B001800FDF704FD030019002000FFF7EE
:10386000DDFF03001800BD4603B090BD80B582B0F7
:1038700000AF786039603B681B781800BD4602B025
:1038800080BD80B582B000AF786039607B683A68EF
:1038900011001800FFF7EAFF03001800BD4602B050
:1038A00080BD000080B582B000AF786039607B6871
:1038B000012B00D08AE03B68464A934200D085E065
:1038C000454B1800FDF744F8444B01211800FDF763
:1038D0006FF9434B19211800FDF76AF9414B1B2181
:1038E0001800FDF765F9404B0D211800FDF760F950
:1038F0003E4B10211800FDF75BF93D4B09211800E4
:10390000FDF756F93B4B0A211800FDF751F93A4BE8
:103910000A211800FDF74CF9384B0B211800FDF770
:1039200047F9374B0B211800FDF742F9354B0521BC
:103930001800FDF73DF9344B05211800FDF738F963
:10394000324B06211800FDF733F9314B06211800E0
:10395000FDF72EF92F4B07211800FDF729F92E4B03
:1039600007211800FDF724F92C4B07211800FDF75B
:103970001FF92B4B07211800FDF71AF9294B0721D6
:103980001800FDF715F9284B07211800FDF710F96D
:10399000264B07211800FDF70BF9254B07211800CE
:1039A000FDF706F9234B07211800FDF701F9224B1B
:1039B00007211800FDF7FCF8204B07211800FDF740
:1039C000F7F81F4B07211800FDF7F2F8C046BD4677
:1039D00002B080BDFFFF00008C000020A40000208A
:1039E000AC000020B4000020BC000020C400002077
:1039F000CC000020D4000020DC000020E4000020E7
:103A0000EC000020F4000020FC0000200401002055
:103A10000C010020140100201C01002024010020C2
:103A20002C010020340100203C0100204401002032
:103A30004C010020540100205C01002064010020A2
:103A40006C01002080B582B000AF786039607B687F
:103A500014333A6811001800FEF7E8F9C046BD4675
:103A600002B080BD80B582B000AF786039607B68FD
:103A700024333A6811001800FEF7D8F9C046BD4655
:103A800002B080BD80B582B000AF786039607B68DD
:103A900034333A6811001800FEF7C8F9C046BD4635
:103AA00002B080BD80B582B000AF786039607B68BD
:103AB00054333A681100180000F018FCC046BD46A7
:103AC00002B080BD80B584B000AFF860B9607A60A4
:103AD0003B60BA687B689A4205D9BA683B689A42EB
:103AE00001D8012300E000231800BD4604B080BDCA
:103AF000B0B594B000AF78607B68180000F011FC9E
:103B000003001A0001235340DBB2002B05D07B6871
:103B10009B6E002B01D1012300E00023002B00D07D
:103B20009EE17B68180000F0FCFB03001A000123F3
:103B30005340DBB2002B58D07B685B7C01225340A2
:103B4000DBB2002B06D07B6870229B5C002B01D07F
:103B5000012400E000247B6824331A0010257B191F
:103B600011001800FEF7E5FB7B191900200000F09A
:103B7000E9FB7B191800FDF7F4FB7B685B7C0122F5
:103B80005340DBB2002B0ED07B6870229B5C002B75
:103B900009D07B6871229B5C01225340DBB2002B71
:103BA00001D0012400E000247B6834331A00202572
:103BB0007B1911001800FEF7BCFB7B1919002000CF
:103BC00000F0C0FB7B191800FDF7CBFB7B680022DF
:103BD0009A667B680122DA667B687022002199541C
:103BE0007B687122002199543DE17B689B6E5A1CD1
:103BF0007B689A667B689C6E0A200021FCF79DFC1E
:103C000003009C4209D37B6870229B5C01225340D5
:103C1000DBB2002B01D0012300E00023002B1BD0DE
:103C20007B687022012199547B685B7C01225340A0
:103C3000DCB27B6814331A0030257B1911001800A0
:103C4000FEF777FB7B191900200000F07BFB7B1946
:103C50001800FDF786FB06E17B689C6E01200021C1
:103C6000FCF775FC03009C4209D37B6871229B5CC6
:103C700001225340DBB2002B01D0012300E00023DE
:103C8000002B1BD07B687122012199547B685B7CDF
:103C900001225340DCB27B6844331A0040257B1973
:103CA00011001800FEF745FB7B191900200000F0F9
:103CB00049FB7B191800FDF754FBD4E07B685433B3
:103CC000180000F05DFB03001A0001235340DBB233
:103CD000002B00D0C6E07B689C6E01200021FCF721
:103CE00036FC050002200021FCF731FC03000C2209
:103CF000B8182A002100FFF7E5FE031E09D07B68F3
:103D00009B6EC8211800FCF785FA0B1E01D1012318
:103D100000E00023002B06D07B68543301211800FB
:103D200000F03FFB9FE07B689C6E02200021FCF7C7
:103D30000EFC050003200021FCF709FC03000C2207
:103D4000B8182A002100FFF7BDFE031E09D07B68CA
:103D50009B6E64211800FCF75DFA0B1E01D1012354
:103D600000E00023002B06D07B68543301211800AB
:103D700000F017FB77E07B689C6E03200021FCF7C6
:103D8000E6FB050004200021FCF7E1FB03000C2208
:103D9000B8182A002100FFF795FE031E09D07B68A2
:103DA0009B6E32211800FCF735FA0B1E01D101235E
:103DB00000E00023002B06D07B685433012118005B
:103DC00000F0EFFA4FE07B689C6E04200021FCF7C6
:103DD000BEFB050005200021FCF7B9FB03000C2207
:103DE000B8182A002100FFF76DFE031E09D07B687A
:103DF0009B6E19211800FCF70DFA0B1E01D101234F
:103E000000E00023002B06D07B685433012118000A
:103E100000F0C7FA27E07B689B6E144A934222D9D0
:103E20007B689B6E19211800FCF7F4F90B1E1AD160
:103E30007B6854331A007B68DB6E1900100000F0B9
:103E4000B0FA7B689A6EFA2399001000FCF7E2F949
:103E50000B1E08D17B68DB6E5A1C7B68DA6602E0B9
:103E6000C04600E0C046BD4614B0B0BD8813000097
:103E700008B4024B9C46043808BC6047F13A00087D
:103E800080B582B000AF78607B685B695A1C7B6844
:103E90005A617B685B69114A944663445A425341B4
:103EA000DBB2002B15D07B6800225A617B681B8B2C
:103EB00001339AB27B681A837B681B8B3C2B08D139
:103EC0007B6800221A837B681B691A88013292B2D0
:103ED0001A80C046BD4602B080BDC046A015FFFF97
:103EE000F0B589B000AF78607B685B69FB617B6887
:103EF0003D229B5CDBB2052B00D9F3E19A00E34B3A
:103F0000D3181B689F467B684033180000F065FAA1
:103F100003001A00FB699B181C787B6818331D008E
:103F20007B684033180000F058FA0300EB181B7848
:103F3000E31A5A425341DBB2002B12D07B68403364
:103F40000021180000F053FA7B684033180000F09D
:103F500044FA03005A425341D9B27B683C22995437
:103F6000C0E17B683D2201219954BBE17B681B695C
:103F70001800FCF782FA03001A0001235340DBB259
:103F8000002B08D07B681B691800FCF73BFA031E66
:103F900001D0012300E00023002B00D19BE17B68CE
:103FA0001B691800FCF788FA7B681B691800FCF78E
:103FB00036FA7B684033180000F00FFA03001A004D
:103FC000FB699B1819787B683F2299547B684033C2
:103FD000180000F002FA03001A0008217B181A707A
:103FE0007B683F229B5CDAB27B185A707B18180002
:103FF000FDF7FCF803001C007B6838331800FDF760
:1040000039F90300221C1A807B683D220221995451
:1040100061E17B681B691800FCF714FA031E00D1EC
:104020005BE17B681B691800FCF719FA03001800B4
:10403000FCF7DAF97B683F229B5CDDB27B681833C2
:104040001C007B684033180000F0C7F90300E31838
:104050002A1C1A707B6838331800FDF726F9050012
:104060007B6828331C007B681C331800FEF7BAFFFE
:10407000030019002000FEF73AFC03001800FDF7CA
:1040800033F90300FB600C23FB1819002800FDF72F
:10409000FBF8031E07D07B683E229B5CD9B27B688D
:1040A0003D22995419E17B6820331C007B681C3346
:1040B0001800FEF797FF0300E31801221A707B68CF
:1040C0001C330021180000F0B3F97B6828331C0072
:1040D0007B681C331800FEF785FF030019002000E1
:1040E000FEF705FC03007C681800FDF7ECF8030000
:1040F000A3637B6840330021180000F0B5F97B68AA
:104100003D22012199547B683E2205219954E4E027
:104110007B681B691800FCF7B0F903001A00012343
:104120005340DBB2002B08D07B681B691800FCF7FA
:1041300069F9031E01D0012300E00023002B00D108
:10414000CDE07B6820331800FEF76CFF04007B682D
:1041500020331800FEF76FFF010013203B180122E7
:104160001A703B181A00200000F08FF903007B61E1
:104170007B6820331800FEF75EFF02007B699B1A04
:104180005A425341DBB2002B07D07B683E229B5C36
:10419000D9B27B683D229954A4E07B682033180093
:1041A000FEF740FF02007B691900100000F082F961
:1041B00002007B685A627B681B691800FCF77CF977
:1041C00004007B685B6A1A00314B1100180000F094
:1041D00086F903001B7819002000FCF78BF97B6837
:1041E0003D22042199547AE07B681B691800FCF792
:1041F00029F9031E00D174E07B681B691800FCF7E5
:104200002EF903001800FCF7EFF87B6828331A003A
:104210007B685B6A19001000FEF769FB0300180059
:1042200000F06DF905007B6828331A007B685B6A33
:1042300019001000FEF75BFB0300180000F06CF99A
:1042400003001B22BC18321C1900280000F071F971
:10425000030023707B685B6A1B22BA181278012165
:104260004A40D0B27A682021D3185B18021C1A7019
:104270007B68180000F080F9031E01D0032100E0E4
:1042800000217B683D2299542BE0C0462451000850
:10429000205100087B684033180000F087F90300C4
:1042A0005A1E9341DBB2002B04D07B683D220121D2
:1042B000995417E07B68180000F05EF9031E01D0E6
:1042C000032100E000217B683D2299547B683E2257
:1042D0000021995406E0C04604E0C04602E0C04612
:1042E00000E0C046C046BD4609B0F0BD90B587B0FD
:1042F00000AF786039603A6808243B191100180053
:1043000000F06EF97A683B191100180000F08AF984
:104310003B191800FDF7B5F97B681800BD4607B0DA
:1043200090BD80B582B000AF78607B685B6E18008E
:10433000FCF7AAF903005A1E9341DBB21800BD46F0
:1043400002B080BD90B587B000AF02003960FB1DA0
:104350001A70FB1D1B78002B0ED03A6808243B19FD
:1043600011001800FDF7E5FF3B19180000F07BF97C
:104370003B191800FCF7F5FFC046BD4607B090BDDD
:1043800080B582B000AF78607B681800FCF7AEFAA9
:1043900003001A0001235340DBB21800BD4602B0EF
:1043A00080BDB0B582B000AF786039607B6818001E
:1043B000FCF79CFA031E01D000F0D3FC7B68DC689C
:1043C0007D683B001800FCF79EFA030019002800E6
:1043D000A047C046BD4602B0B0BD80B582B000AFB8
:1043E00078607B681B781800BD4602B080BD80B540
:1043F00084B000AF786039600F23FB187A681278B8
:104400001A707B681B780133DAB27B681A707B689C
:104410001B78032B02D87B681A7800E000227B68A7
:104420001A700F23FB181B781800BD4604B080BD1E
:1044300080B584B000AF786039607B681B68FB6032
:104440007B681B685A1C7B681A607B681B68012BA1
:1044500002D87B681A6800E000227B681A60FB685B
:104460001800BD4604B080BD80B582B000AF786052
:104470000A00FB1C1A707B68FA1C12781A707B68A1
:104480001B781800BD4602B080BD80B584B000AF77
:10449000F860B9607A607B68180000F0F6F80200F6
:1044A000B968FB68180000F000F903001800BD4669
:1044B00004B080BDB0B582B000AF786039607C6870
:1044C0003B1D1800FEF7D5FE3B682A1C1900200092
:1044D00000F002F903001800BD4602B0B0BD80B57F
:1044E00082B000AF786039607B683A6811001800CC
:1044F00000F000F903001800BD4602B080BD80B591
:1045000082B000AF78607B681800FCF7DCFE030027
:104510001800BD4602B080BD80B582B000AF7860A3
:104520007B681800FCF7E0FE03001800BD4602B0EF
:1045300080BDB0B586B000AFF860B9603B1D1A70A1
:104540000823FB181800FCF781FE0400B968FB681B
:104550002A1C180000F0DAF803007B611423FB1812
:104560001800FCF773FE0300E31A5A425341DBB212
:104570001800BD4606B0B0BDB0B582B000AF7860DF
:104580007B6820331800FEF74DFD04007B68203364
:104590001800FEF750FD03002A1C1900200000F04F
:1045A000CAF803001800BD4602B0B0BD80B582B0A5
:1045B00000AF78607B681B780133DAB27B681A70D1
:1045C0007B681B78032B02D87B681A7800E00022F6
:1045D0007B681A707B681B781800BD4602B080BDEE
:1045E00080B582B000AF786039607B681800FCF756
:1045F0005EF93B681800FFF7C3FE031E0DD03B6851
:104600009B6878683968022298473B68DA687B685B
:10461000DA603B689A687B689A607B681800BD46E0
:1046200002B080BD80B582B000AF786039607B6831
:104630003A6811001800FEF7E4F87B6808331A00A6
:104640003B68083319001000FEF706F97B680C334D
:104650001A003B680C331900100000F08BF8C046BC
:10466000BD4602B080BD80B582B000AF78607B6887
:104670001800FDF7B5FB031E03D07B681800FDF79B
:10468000C0FBC046BD4602B080BD80B584B000AF5F
:1046900078607A680C23FB181100180000F08BF882
:1046A000FB681800BD4604B080BDB0B584B000AF53
:1046B000F860B9607A60FC680C23FB181800FEF7FC
:1046C000D8FD7A68B9682B1C200000F081F803003F
:1046D0001800BD4604B0B0BD80B584B000AFF8602E
:1046E000B9603B1D1A70BA68FB68D31A1800BD4642
:1046F00004B080BD80B582B000AF786039607A6860
:104700003B68D3181800BD4602B080BDB0B584B078
:1047100000AFF860B9603B1D1A70281C00F0DFF88C
:10472000B968FB68221C180000F0ECF803001800C0
:10473000BD4604B0B0BD90B585B000AFF860B960BB
:104740003B1D1A70B968FB68221C180000F0F6F8CF
:1047500003001A0001235340DBB21800BD4605B028
:1047600090BD80B582B000AF78607B681800BD4610
:1047700002B080BD80B584B000AF786039607B68DE
:104780001800FFF7EEFF03001B68FB603B68180092
:10479000FFF7E7FF03001A687B681A600C23FB1819
:1047A0001800FFF7DEFF03001A683B681A60C04676
:1047B000BD4604B080BD80B582B000AF786039607E
:1047C0007B683A681A607B681800BD4602B080BDFD
:1047D00080B586B000AFF860B9607A603A001370B7
:1047E000BA68FB68D31A9B107B617B69002B37DDAD
:1047F000FA683B1D1100180000F0B7F8031E01D045
:10480000FB685FE0FB680133FB60FA683B1D110049
:10481000180000F0AAF8031E01D0FB6852E0FB6804
:104820000133FB60FA683B1D1100180000F09DF891
:10483000031E01D0FB6845E0FB680133FB60FA68AA
:104840003B1D1100180000F090F8031E01D0FB681A
:1048500038E0FB680133FB607B69013B7B61C4E7A7
:10486000BA68FB68D31A022B11D0032B02D0012B9C
:104870001AD026E0FA683B1D1100180000F075F808
:10488000031E01D0FB681DE0FB680133FB60FA6882
:104890003B1D1100180000F068F8031E01D0FB68F2
:1048A00010E0FB680133FB60FA683B1D1100180043
:1048B00000F05BF8031E01D0FB6803E0FB680133E6
:1048C000FB60BB681800BD4606B080BD80B582B0F5
:1048D00000AF78607B681800BD4602B080BDB0B5FF
:1048E00084B000AF3B1D18703B1D1800FFF7EEFFB2
:1048F0000C23FB18291C180000F049F8201CBD46A9
:1049000004B0B0BDB0B584B000AFF860B9603B1D75
:104910001A703B1D1B78181C00F048F80C23FB187C
:104920001800FEF72DFCB968F8682B1C221C00F05B
:1049300050F803001800BD4604B0B0BD90B585B076
:1049400000AFF860B9603B1D1A70B968FB68221CA3
:10495000180000F06EF80200BB689B1A5A425341DF
:10496000DBB21800BD4605B090BD80B582B000AF87
:10497000786039603B681A787B681B681B78D31AAB
:104980005A425341DBB21800BD4602B080BD80B52B
:1049900082B000AF78603B0019703B001800FFF751
:1049A00095FF7B681800BD4602B080BDB0B584B0ED
:1049B00000AF3B1D18703B1D1800FFF787FF0C234D
:1049C000FB18291C180000F049F8201CBD4604B053
:1049D000B0BD80B584B000AFF860B960391D0A7011
:1049E0003A0013700823FA180C23FB181100180062
:1049F000FCF74AFC031E0ED0FA683B1D110018009C
:104A000000F050F803001A0001235340DBB2002BE2
:104A100001D0012300E00023002B05D00C23FB185C
:104A20001800FCF742FCDDE7FB681800BD4604B047
:104A300080BDB0B584B000AFF860B9603B1D1A709E
:104A4000281C00F051F8B968FB68221C180000F01F
:104A50005EF803001800BD4604B0B0BD80B582B05A
:104A600000AF78603B0019703B001800FFF72EFF85
:104A70007B681800BD4602B080BD000080B582B0E2
:104A800000AF78603B0019803B001B88044A9446C5
:104A900063445A425341DBB21800BD4602B080BDA8
:104AA0000100FFFF90B583B000AF786039607C688B
:104AB0003B001800FCF7D4FB03001B88191C2000E6
:104AC000FFF7DCFF03001A0001235340DBB218009C
:104AD000BD4603B090BD80B582B000AF78607B6802
:104AE0001800BD4602B080BDB0B584B000AF3B1D1C
:104AF00018703B1D1800FFF7EEFF0C23FB18291C54
:104B0000180000F01DF8201CBD4604B0B0BDB0B5C3
:104B100084B000AFF860B9603B1D1A70FC680C23CC
:104B2000FB181800FEF7A5FB3B1D1A78B9682B1C73
:104B3000200000F014F803001800BD4604B0B0BD1A
:104B400080B582B000AF78603B0019703B00180060
:104B5000FFF7C1FF7B681800BD4602B080BD80B57D
:104B600086B000AFF860B960391D0A703A00137062
:104B7000BA68FB68D31A9B107B617B69002B37DD19
:104B8000FA683B1D1100180000F073F8031E01D0F5
:104B9000FB685FE0FB680133FB60FA683B1D1100B6
:104BA000180000F066F8031E01D0FB6852E0FB68B5
:104BB0000133FB60FA683B1D1100180000F059F842
:104BC000031E01D0FB6845E0FB680133FB60FA6817
:104BD0003B1D1100180000F04CF8031E01D0FB68CB
:104BE00038E0FB680133FB607B69013B7B61C4E714
:104BF000BA68FB68D31A022B11D0032B02D0012B09
:104C00001AD026E0FA683B1D1100180000F031F8B8
:104C1000031E01D0FB681DE0FB680133FB60FA68EE
:104C20003B1D1100180000F024F8031E01D0FB68A2
:104C300010E0FB680133FB60FA683B1D11001800AF
:104C400000F017F8031E01D0FB6803E0FB68013396
:104C5000FB60BB681800BD4606B080BD80B582B061
:104C600000AF786039603B681B781800BD4602B021
:104C700080BD80B582B000AF786039607B683A68EB
:104C800011001800FFF7EAFF03001800BD4602B04C
:104C900080BD000080B500AF034B19000120FEF776
:104CA00001FEBD4680BDC046FFFF00000D488546A1
:104CB0000D480E490E4A002302E0D458C450043374
:104CC000C4188C42F9D30B4A0B4C002301E013604B
:104CD0000432A242FBD3FCF7DDFB00F05FF8FCF7E7
:104CE00005FDFEE7002000200000002070000020ED
:104CF0004851000870000020E4010020FEE710B5D4
:104D0000041E00D10134200000F06CF8002807D107
:104D100000F00AF8002801D100F02AF88047F2E7F5
:104D200010BD10B500F00AF8014B18687047C04676
:104D3000D001002010B5804700F01AF8024B10B5E2
:104D40001868FFF7F7FFC046080000200B0010B5F9
:104D50000100180000F014F810BD10B500F004F8C0
:104D600010BD10B500F004F810B500F045F810BD06
:104D700010B5062000F038F9012000F075F90000A8
:104D800010B5040004481300002804D00A000220D3
:104D9000210000E000BF10BD0000000070B500263B
:104DA0000C4D0D4C641BA410A64209D1002600F046
:104DB0005DF90A4D0A4C641BA410A64205D170BDD2
:104DC000B300EB5898470136EEE7B300EB5898472D
:104DD0000136F2E73C5100083C5100083C51000804
:104DE0004451000810B5034B0100186800F062F848
:104DF00010BDC0460C00002010B5034B0100186820
:104E000000F00EF810BDC0460C000020002310B5C5
:104E10009A4200D110BDCC5CC4540133F8E70000C5
:104E200070B50500002910D00C1F2368002B00DA94
:104E3000E418280000F0F8F81D4A1368002B05D18B
:104E400063601460280000F0F0F870BDA34209D937
:104E5000216860188342F3D118685B6841182160AB
:104E6000EEE713005A68002A01D0A242F9D9196866
:104E70005818A0420BD120680918581819608242AE
:104E8000E0D110685268411819605A60DAE7A04210
:104E900002D90C232B60D5E721686018824203D128
:104EA000106852684118216062605C60CAE7C046C1
:104EB000D4010020032370B5CD1C9D4308350600A6
:104EC0000C2D1ED20C25A9421DD8300000F0ACF8E4
:104ED000254A14682100002919D1244C2368002B8D
:104EE00003D1300000F044F820602900300000F0C9
:104EF0003FF8431C2BD10C233000336000F095F8B1
:104F000003E0002DDFDA0C233360002070BD0B6856
:104F10005B1B19D40B2B03D90B60CC18256003E065
:104F20004B688C420DD11360300000F07EF82000F9
:104F300007220B30231D9043C31AE7D05A42E25098
:104F4000E4E763600C00EFE70C004968C3E7032364
:104F5000C41C9C43A042E1D0211A300000F008F8A4
:104F6000431CDBD1C7E7C046D4010020D801002094
:104F7000002370B5064C05000800236000F066F8B9
:104F8000431C03D12368002B00D02B6070BDC046AA
:104F9000E001002070B504000D001F2904D916237C
:104FA00003600120404270BD436C002B04D08A0096
:104FB0009B181A68002A08D1200000F031F82A0056
:104FC0000100200000F01AF8EDE70020012AEAD0E5
:104FD000511C03D1162301302360E4E7002428008C
:104FE0001C6090472000DEE710B5034B01001868F5
:104FF000FFF7D0FF10BDC0460C000020002370B5A5
:10500000064C050008001100236000F017F8431C4F
:1050100003D12368002B00D02B6070BDE00100207D
:1050200010B500F003F810BD7047704758220120FA
:10503000014B40421A607047E001002058220120D5
:10504000014B40421A607047E0010020044A136897
:10505000002B00D1034B1818106018007047C04691
:10506000DC010020E8010020FEE7C046F8B5C0469C
:10507000F8BC08BC9E467047F8B5C046F8BC08BCF2
:045080009E46704791
:105084000000000000000000453A0008653A0008EE
:10509400853A000855220008A53A0008F13A0008AC
:1050A400FCFFFFFF00000000713E0008000000004C
:1050B40000000000813E0008000000000000000025
:1050C400E13E000800000000000000004914000850
:1050D4000000000000000000234D0008234D0008DC
:1050E400234D0008234D0008234D00080000000054
:1050F40000000000234D0008000000000000000034
:105104005D0A00080000000000000000234D0008B4
:105114000000000000000000234D00081A190000E0
:10512400063F00086C3F00081240000810410008C8
:08513400E84100089442000864
:08513C00E9000008954C000891
:04514400C10000089E
:105148000000000021020008714D00081000002036
:105158000000000000000000000000000000000047
:105168000000000000000000000000000000000037
:105178000000000000000000000000000000000027
:105188000000000000000000000000000000000017
:105198000000000000000000000000000000000007
:1051A80000000000000000000000000000000000F7
:0400000508004CADF6
:00000001FF
